{
  "contractName": "SkinsStore",
  "abi": [
    {
      "constant": true,
      "inputs": [],
      "name": "dgsToken",
      "outputs": [
        {
          "name": "",
          "type": "address"
        }
      ],
      "payable": false,
      "stateMutability": "view",
      "type": "function"
    },
    {
      "constant": false,
      "inputs": [],
      "name": "renounceOwnership",
      "outputs": [],
      "payable": false,
      "stateMutability": "nonpayable",
      "type": "function"
    },
    {
      "constant": true,
      "inputs": [],
      "name": "owner",
      "outputs": [
        {
          "name": "",
          "type": "address"
        }
      ],
      "payable": false,
      "stateMutability": "view",
      "type": "function"
    },
    {
      "constant": false,
      "inputs": [
        {
          "name": "_newOwner",
          "type": "address"
        }
      ],
      "name": "transferOwnership",
      "outputs": [],
      "payable": false,
      "stateMutability": "nonpayable",
      "type": "function"
    },
    {
      "inputs": [
        {
          "name": "dgsTokenAddress",
          "type": "address"
        }
      ],
      "payable": false,
      "stateMutability": "nonpayable",
      "type": "constructor"
    },
    {
      "anonymous": false,
      "inputs": [
        {
          "indexed": false,
          "name": "tokenSymbol",
          "type": "string"
        }
      ],
      "name": "NewTokenPlaced",
      "type": "event"
    },
    {
      "anonymous": false,
      "inputs": [
        {
          "indexed": false,
          "name": "tokenSymbol",
          "type": "string"
        },
        {
          "indexed": false,
          "name": "amount",
          "type": "uint256"
        }
      ],
      "name": "Sell",
      "type": "event"
    },
    {
      "anonymous": false,
      "inputs": [
        {
          "indexed": true,
          "name": "previousOwner",
          "type": "address"
        }
      ],
      "name": "OwnershipRenounced",
      "type": "event"
    },
    {
      "anonymous": false,
      "inputs": [
        {
          "indexed": true,
          "name": "previousOwner",
          "type": "address"
        },
        {
          "indexed": true,
          "name": "newOwner",
          "type": "address"
        }
      ],
      "name": "OwnershipTransferred",
      "type": "event"
    },
    {
      "constant": false,
      "inputs": [
        {
          "name": "symbol",
          "type": "string"
        },
        {
          "name": "tokenAddress",
          "type": "address"
        },
        {
          "name": "currency",
          "type": "uint8"
        },
        {
          "name": "price",
          "type": "uint256"
        },
        {
          "name": "amount",
          "type": "uint256"
        }
      ],
      "name": "placeNewToken",
      "outputs": [],
      "payable": false,
      "stateMutability": "nonpayable",
      "type": "function"
    },
    {
      "constant": false,
      "inputs": [
        {
          "name": "symbol",
          "type": "string"
        },
        {
          "name": "amount",
          "type": "uint256"
        },
        {
          "name": "receiver",
          "type": "address"
        }
      ],
      "name": "buyTokenForEth",
      "outputs": [
        {
          "name": "success",
          "type": "bool"
        }
      ],
      "payable": true,
      "stateMutability": "payable",
      "type": "function"
    },
    {
      "constant": false,
      "inputs": [
        {
          "name": "symbol",
          "type": "string"
        },
        {
          "name": "amount",
          "type": "uint256"
        },
        {
          "name": "receiver",
          "type": "address"
        }
      ],
      "name": "buyTokenForDgs",
      "outputs": [
        {
          "name": "success",
          "type": "bool"
        }
      ],
      "payable": false,
      "stateMutability": "nonpayable",
      "type": "function"
    },
    {
      "constant": true,
      "inputs": [
        {
          "name": "symbol",
          "type": "string"
        }
      ],
      "name": "getTokenForSell",
      "outputs": [
        {
          "name": "token",
          "type": "address"
        },
        {
          "name": "currency",
          "type": "uint8"
        },
        {
          "name": "price",
          "type": "uint256"
        },
        {
          "name": "amount",
          "type": "uint256"
        }
      ],
      "payable": false,
      "stateMutability": "view",
      "type": "function"
    },
    {
      "constant": true,
      "inputs": [
        {
          "name": "symbol",
          "type": "string"
        }
      ],
      "name": "getTokenForSaleData",
      "outputs": [
        {
          "name": "currency",
          "type": "uint8"
        },
        {
          "name": "price",
          "type": "uint256"
        },
        {
          "name": "amount",
          "type": "uint256"
        }
      ],
      "payable": false,
      "stateMutability": "view",
      "type": "function"
    },
    {
      "constant": true,
      "inputs": [
        {
          "name": "symbol",
          "type": "string"
        }
      ],
      "name": "getTokenForSaleAddress",
      "outputs": [
        {
          "name": "tokenAddress",
          "type": "address"
        }
      ],
      "payable": false,
      "stateMutability": "view",
      "type": "function"
    }
  ],
  "bytecode": "0x608060405234801561001057600080fd5b5060405160208061197083398101806040528101908080519060200190929190505050336000806101000a81548173ffffffffffffffffffffffffffffffffffffffff021916908373ffffffffffffffffffffffffffffffffffffffff16021790555080600160006101000a81548173ffffffffffffffffffffffffffffffffffffffff021916908373ffffffffffffffffffffffffffffffffffffffff160217905550506118ac806100c46000396000f3006080604052600436106100a4576000357c0100000000000000000000000000000000000000000000000000000000900463ffffffff1680631743c4c4146100a95780631a5124361461015357806362a81fa4146101fc578063715018a6146102535780638b2aa78e1461026a5780638da5cb5b14610315578063c3ed548f1461036c578063d534416614610405578063ddb57b74146104d1578063f2fde38b1461056f575b600080fd5b3480156100b557600080fd5b50610151600480360381019080803590602001908201803590602001908080601f0160208091040260200160405190810160405280939291908181526020018383808284378201915050505050509192919290803573ffffffffffffffffffffffffffffffffffffffff169060200190929190803560ff16906020019092919080359060200190929190803590602001909291905050506105b2565b005b34801561015f57600080fd5b506101ba600480360381019080803590602001908201803590602001908080601f0160208091040260200160405190810160405280939291908181526020018383808284378201915050505050509192919290505050610952565b604051808273ffffffffffffffffffffffffffffffffffffffff1673ffffffffffffffffffffffffffffffffffffffff16815260200191505060405180910390f35b34801561020857600080fd5b506102116109ea565b604051808273ffffffffffffffffffffffffffffffffffffffff1673ffffffffffffffffffffffffffffffffffffffff16815260200191505060405180910390f35b34801561025f57600080fd5b50610268610a10565b005b34801561027657600080fd5b506102fb600480360381019080803590602001908201803590602001908080601f016020809104026020016040519081016040528093929190818152602001838380828437820191505050505050919291929080359060200190929190803573ffffffffffffffffffffffffffffffffffffffff169060200190929190505050610b12565b604051808215151515815260200191505060405180910390f35b34801561032157600080fd5b5061032a61102c565b604051808273ffffffffffffffffffffffffffffffffffffffff1673ffffffffffffffffffffffffffffffffffffffff16815260200191505060405180910390f35b34801561037857600080fd5b506103d3600480360381019080803590602001908201803590602001908080601f0160208091040260200160405190810160405280939291908181526020018383808284378201915050505050509192919290505050611051565b604051808460018111156103e357fe5b60ff168152602001838152602001828152602001935050505060405180910390f35b34801561041157600080fd5b5061046c600480360381019080803590602001908201803590602001908080601f01602080910402602001604051908101604052809392919081815260200183838082843782019150505050505091929192905050506111bd565b604051808573ffffffffffffffffffffffffffffffffffffffff1673ffffffffffffffffffffffffffffffffffffffff1681526020018460018111156104ae57fe5b60ff16815260200183815260200182815260200194505050505060405180910390f35b610555600480360381019080803590602001908201803590602001908080601f016020809104026020016040519081016040528093929190818152602001838380828437820191505050505050919291929080359060200190929190803573ffffffffffffffffffffffffffffffffffffffff1690602001909291905050506113bb565b604051808215151515815260200191505060405180910390f35b34801561057b57600080fd5b506105b0600480360381019080803573ffffffffffffffffffffffffffffffffffffffff1690602001909291905050506116d5565b005b6105ba611836565b6000809054906101000a900473ffffffffffffffffffffffffffffffffffffffff1673ffffffffffffffffffffffffffffffffffffffff163373ffffffffffffffffffffffffffffffffffffffff1614151561061557600080fd5b60006002876040518082805190602001908083835b60208310151561064f578051825260208201915060208101905060208303925061062a565b6001836020036101000a03801982511681845116808217855250505050505090500191505090815260200160405180910390206002015414151561069257600080fd5b818573ffffffffffffffffffffffffffffffffffffffff166370a08231306040518263ffffffff167c0100000000000000000000000000000000000000000000000000000000028152600401808273ffffffffffffffffffffffffffffffffffffffff1673ffffffffffffffffffffffffffffffffffffffff168152602001915050602060405180830381600087803b15801561072e57600080fd5b505af1158015610742573d6000803e3d6000fd5b505050506040513d602081101561075857600080fd5b81019080805190602001909291905050501015151561077657600080fd5b6080604051908101604052808673ffffffffffffffffffffffffffffffffffffffff1681526020018560018111156107aa57fe5b8152602001848152602001838152509050806002876040518082805190602001908083835b6020831015156107f457805182526020820191506020810190506020830392506107cf565b6001836020036101000a038019825116818451168082178552505050505050905001915050908152602001604051809103902060008201518160000160006101000a81548173ffffffffffffffffffffffffffffffffffffffff021916908373ffffffffffffffffffffffffffffffffffffffff16021790555060208201518160000160146101000a81548160ff0219169083600181111561089257fe5b021790555060408201518160010155606082015181600201559050507f52d6596f49a4f9d0acb6edf952297e35ed40bad235701f788df5600a5a087187866040518080602001828103825283818151815260200191508051906020019080838360005b838110156109105780820151818401526020810190506108f5565b50505050905090810190601f16801561093d5780820380516001836020036101000a031916815260200191505b509250505060405180910390a1505050505050565b60006002826040518082805190602001908083835b60208310151561098c5780518252602082019150602081019050602083039250610967565b6001836020036101000a038019825116818451168082178552505050505050905001915050908152602001604051809103902060000160009054906101000a900473ffffffffffffffffffffffffffffffffffffffff169050919050565b600160009054906101000a900473ffffffffffffffffffffffffffffffffffffffff1681565b6000809054906101000a900473ffffffffffffffffffffffffffffffffffffffff1673ffffffffffffffffffffffffffffffffffffffff163373ffffffffffffffffffffffffffffffffffffffff16141515610a6b57600080fd5b6000809054906101000a900473ffffffffffffffffffffffffffffffffffffffff1673ffffffffffffffffffffffffffffffffffffffff167ff8df31144d9c2f0f6b59d69b8b98abd5459d07f2742c4df920b25aae33c6482060405160405180910390a260008060006101000a81548173ffffffffffffffffffffffffffffffffffffffff021916908373ffffffffffffffffffffffffffffffffffffffff160217905550565b6000806002856040518082805190602001908083835b602083101515610b4d5780518252602082019150602081019050602083039250610b28565b6001836020036101000a0380198251168184511680821785525050505050509050019150509081526020016040518091039020905080600201548411151515610b9557600080fd5b60006001811115610ba257fe5b8160000160149054906101000a900460ff166001811115610bbf57fe5b141515610bcb57600080fd5b80600101548402600160009054906101000a900473ffffffffffffffffffffffffffffffffffffffff1673ffffffffffffffffffffffffffffffffffffffff1663dd62ed3e33306040518363ffffffff167c0100000000000000000000000000000000000000000000000000000000028152600401808373ffffffffffffffffffffffffffffffffffffffff1673ffffffffffffffffffffffffffffffffffffffff1681526020018273ffffffffffffffffffffffffffffffffffffffff1673ffffffffffffffffffffffffffffffffffffffff16815260200192505050602060405180830381600087803b158015610cc357600080fd5b505af1158015610cd7573d6000803e3d6000fd5b505050506040513d6020811015610ced57600080fd5b810190808051906020019092919050505010151515610d0b57600080fd5b838160020160008282540392505081905550600160009054906101000a900473ffffffffffffffffffffffffffffffffffffffff1673ffffffffffffffffffffffffffffffffffffffff166323b872dd336000809054906101000a900473ffffffffffffffffffffffffffffffffffffffff16846001015488026040518463ffffffff167c0100000000000000000000000000000000000000000000000000000000028152600401808473ffffffffffffffffffffffffffffffffffffffff1673ffffffffffffffffffffffffffffffffffffffff1681526020018373ffffffffffffffffffffffffffffffffffffffff1673ffffffffffffffffffffffffffffffffffffffff1681526020018281526020019350505050602060405180830381600087803b158015610e3d57600080fd5b505af1158015610e51573d6000803e3d6000fd5b505050506040513d6020811015610e6757600080fd5b8101908080519060200190929190505050508060000160009054906101000a900473ffffffffffffffffffffffffffffffffffffffff1673ffffffffffffffffffffffffffffffffffffffff1663a9059cbb84866040518363ffffffff167c0100000000000000000000000000000000000000000000000000000000028152600401808373ffffffffffffffffffffffffffffffffffffffff1673ffffffffffffffffffffffffffffffffffffffff16815260200182815260200192505050602060405180830381600087803b158015610f4057600080fd5b505af1158015610f54573d6000803e3d6000fd5b505050506040513d6020811015610f6a57600080fd5b8101908080519060200190929190505050507fd0d5646a968bd38eb78753fb395ca9ae6a2fe3709d724d6c0a5152c969286ee785856040518080602001838152602001828103825284818151815260200191508051906020019080838360005b83811015610fe5578082015181840152602081019050610fca565b50505050905090810190601f1680156110125780820380516001836020036101000a031916815260200191505b50935050505060405180910390a160019150509392505050565b6000809054906101000a900473ffffffffffffffffffffffffffffffffffffffff1681565b60008060006002846040518082805190602001908083835b60208310151561108e5780518252602082019150602081019050602083039250611069565b6001836020036101000a038019825116818451168082178552505050505050905001915050908152602001604051809103902060000160149054906101000a900460ff166002856040518082805190602001908083835b60208310151561110a57805182526020820191506020810190506020830392506110e5565b6001836020036101000a0380198251168184511680821785525050505050509050019150509081526020016040518091039020600101546002866040518082805190602001908083835b6020831015156111795780518252602082019150602081019050602083039250611154565b6001836020036101000a0380198251168184511680821785525050505050509050019150509081526020016040518091039020600201549250925092509193909250565b6000806000806002856040518082805190602001908083835b6020831015156111fb57805182526020820191506020810190506020830392506111d6565b6001836020036101000a038019825116818451168082178552505050505050905001915050908152602001604051809103902060000160009054906101000a900473ffffffffffffffffffffffffffffffffffffffff166002866040518082805190602001908083835b60208310151561128a5780518252602082019150602081019050602083039250611265565b6001836020036101000a038019825116818451168082178552505050505050905001915050908152602001604051809103902060000160149054906101000a900460ff166002876040518082805190602001908083835b60208310151561130657805182526020820191506020810190506020830392506112e1565b6001836020036101000a0380198251168184511680821785525050505050509050019150509081526020016040518091039020600101546002886040518082805190602001908083835b6020831015156113755780518252602082019150602081019050602083039250611350565b6001836020036101000a03801982511681845116808217855250505050505090500191505090815260200160405180910390206002015493509350935093509193509193565b6000806002856040518082805190602001908083835b6020831015156113f657805182526020820191506020810190506020830392506113d1565b6001836020036101000a038019825116818451168082178552505050505050905001915050908152602001604051809103902090508060020154841115151561143e57600080fd5b60018081111561144a57fe5b8160000160149054906101000a900460ff16600181111561146757fe5b14151561147357600080fd5b80600101543481151561148257fe5b04841115151561149157600080fd5b8381600201600082825403925050819055506000809054906101000a900473ffffffffffffffffffffffffffffffffffffffff1673ffffffffffffffffffffffffffffffffffffffff166108fc3073ffffffffffffffffffffffffffffffffffffffff16319081150290604051600060405180830381858888f19350505050158015611521573d6000803e3d6000fd5b508060000160009054906101000a900473ffffffffffffffffffffffffffffffffffffffff1673ffffffffffffffffffffffffffffffffffffffff1663a9059cbb84866040518363ffffffff167c0100000000000000000000000000000000000000000000000000000000028152600401808373ffffffffffffffffffffffffffffffffffffffff1673ffffffffffffffffffffffffffffffffffffffff16815260200182815260200192505050602060405180830381600087803b1580156115e957600080fd5b505af11580156115fd573d6000803e3d6000fd5b505050506040513d602081101561161357600080fd5b8101908080519060200190929190505050507fd0d5646a968bd38eb78753fb395ca9ae6a2fe3709d724d6c0a5152c969286ee785856040518080602001838152602001828103825284818151815260200191508051906020019080838360005b8381101561168e578082015181840152602081019050611673565b50505050905090810190601f1680156116bb5780820380516001836020036101000a031916815260200191505b50935050505060405180910390a160019150509392505050565b6000809054906101000a900473ffffffffffffffffffffffffffffffffffffffff1673ffffffffffffffffffffffffffffffffffffffff163373ffffffffffffffffffffffffffffffffffffffff1614151561173057600080fd5b6117398161173c565b50565b600073ffffffffffffffffffffffffffffffffffffffff168173ffffffffffffffffffffffffffffffffffffffff161415151561177857600080fd5b8073ffffffffffffffffffffffffffffffffffffffff166000809054906101000a900473ffffffffffffffffffffffffffffffffffffffff1673ffffffffffffffffffffffffffffffffffffffff167f8be0079c531659141344cd1fd0a4f28419497f9722a3daafe3b4186f6b6457e060405160405180910390a3806000806101000a81548173ffffffffffffffffffffffffffffffffffffffff021916908373ffffffffffffffffffffffffffffffffffffffff16021790555050565b608060405190810160405280600073ffffffffffffffffffffffffffffffffffffffff1681526020016000600181111561186c57fe5b8152602001600081526020016000815250905600a165627a7a7230582044e095971858487c2854667d0a3214d481b13544bcf5985f8a2b7da93ac967480029",
  "source": "pragma solidity ^0.4.23;\n\nimport \"openzeppelin-solidity/contracts/ownership/Ownable.sol\";\nimport \"openzeppelin-solidity/contracts/math/SafeMath.sol\";\nimport \"openzeppelin-solidity/contracts/token/ERC20/ERC20.sol\";\n\ncontract SkinsStore is Ownable {\n    using SafeMath for uint256;\n\n    event NewTokenPlaced(string tokenSymbol);\n    event Sell(string tokenSymbol, uint amount);\n\n    enum Currency { DGS, ETH }\n\n    struct TokenForSale {\n        address token;\n        Currency currency;\n        uint price;\n        uint amount;\n    }\n\n    ERC20 public dgsToken;\n\n    mapping(string => TokenForSale) tokensForSale;\n\n    constructor(address dgsTokenAddress) public {\n        dgsToken = ERC20(dgsTokenAddress);\n    }\n\n    function placeNewToken(\n        string symbol,\n        address tokenAddress,\n        Currency currency,\n        uint price,\n        uint amount\n        )\n        public\n        onlyOwner\n    {\n        require(tokensForSale[symbol].amount == 0);\n        require(ERC20(tokenAddress).balanceOf(address(this)) >= amount);\n\n        TokenForSale memory token = TokenForSale(\n            tokenAddress,\n            currency,\n            price,\n            amount\n            );\n\n        tokensForSale[symbol] = token;\n\n        emit NewTokenPlaced(symbol);\n    }\n\n    function buyTokenForEth(string symbol, uint amount, address receiver)\n    public payable returns (bool success) {\n        TokenForSale storage token = tokensForSale[symbol];\n        require(amount <= token.amount);\n        require(token.currency == Currency.ETH);\n        require(amount <= msg.value / token.price);\n\n        token.amount -= amount;\n\n        owner.transfer(address(this).balance);\n        ERC20(token.token).transfer(receiver, amount);\n\n        emit Sell(symbol, amount);\n        return true;\n    }\n\n    function buyTokenForDgs(string symbol, uint amount, address receiver)\n    public returns (bool success)\n    {\n        TokenForSale storage token = tokensForSale[symbol];\n        require(amount <= token.amount);\n        require(token.currency == Currency.DGS);\n        require(dgsToken.allowance(\n            msg.sender, address(this)) >= amount * token.price);\n\n        token.amount -= amount;\n\n        dgsToken.transferFrom(msg.sender, owner, amount * token.price);\n        ERC20(token.token).transfer(receiver, amount);\n\n        emit Sell(symbol, amount);\n        return true;\n    }\n\n    function getTokenForSell(string symbol)\n    public\n    view\n    returns (address token, Currency currency, uint price, uint amount) {\n        return (\n            tokensForSale[symbol].token,\n            tokensForSale[symbol].currency,\n            tokensForSale[symbol].price,\n            tokensForSale[symbol].amount\n            );\n    }\n\n    function getTokenForSaleData(string symbol)\n    public\n    view\n    returns (Currency currency, uint price, uint amount) {\n        return (\n            tokensForSale[symbol].currency,\n            tokensForSale[symbol].price,\n            tokensForSale[symbol].amount\n            );\n    }\n\n    function getTokenForSaleAddress(string symbol)\n    public\n    view\n    returns (address tokenAddress) {\n        return tokensForSale[symbol].token;\n    }\n}\n",
  "sourcePath": "/Users/gleb/Documents/GitHub/smart-contracts/Dragonglass Miner/contracts/SkinsStore.sol",
  "compiler": {
    "name": "solc",
    "version": "0.4.24+commit.e67f0147.Emscripten.clang"
  },
  "schemaVersion": "2.0.1",
  "updatedAt": "2018-12-13T21:02:25.692Z"
}