{
  "contractName": "DGS",
  "abi": [
    {
      "constant": true,
      "inputs": [],
      "name": "DECIMALS",
      "outputs": [
        {
          "name": "",
          "type": "uint256"
        }
      ],
      "payable": false,
      "stateMutability": "view",
      "type": "function"
    },
    {
      "constant": true,
      "inputs": [],
      "name": "DECIMAL_INDEX",
      "outputs": [
        {
          "name": "",
          "type": "uint256"
        }
      ],
      "payable": false,
      "stateMutability": "view",
      "type": "function"
    },
    {
      "constant": true,
      "inputs": [],
      "name": "allocationAddressICO",
      "outputs": [
        {
          "name": "",
          "type": "address"
        }
      ],
      "payable": false,
      "stateMutability": "view",
      "type": "function"
    },
    {
      "constant": true,
      "inputs": [],
      "name": "NAME",
      "outputs": [
        {
          "name": "",
          "type": "string"
        }
      ],
      "payable": false,
      "stateMutability": "view",
      "type": "function"
    },
    {
      "constant": true,
      "inputs": [],
      "name": "mineableSupply",
      "outputs": [
        {
          "name": "",
          "type": "uint256"
        }
      ],
      "payable": false,
      "stateMutability": "view",
      "type": "function"
    },
    {
      "constant": true,
      "inputs": [],
      "name": "SYMBOL",
      "outputs": [
        {
          "name": "",
          "type": "string"
        }
      ],
      "payable": false,
      "stateMutability": "view",
      "type": "function"
    },
    {
      "inputs": [
        {
          "name": "_initial",
          "type": "uint256"
        },
        {
          "name": "_founder",
          "type": "address"
        }
      ],
      "payable": false,
      "stateMutability": "nonpayable",
      "type": "constructor"
    },
    {
      "anonymous": false,
      "inputs": [
        {
          "indexed": true,
          "name": "_miner",
          "type": "address"
        },
        {
          "indexed": false,
          "name": "_minedAmount",
          "type": "uint256"
        }
      ],
      "name": "Mined",
      "type": "event"
    },
    {
      "anonymous": false,
      "inputs": [
        {
          "indexed": true,
          "name": "_from",
          "type": "address"
        },
        {
          "indexed": true,
          "name": "_to",
          "type": "address"
        },
        {
          "indexed": false,
          "name": "_value",
          "type": "uint256"
        }
      ],
      "name": "Transfer",
      "type": "event"
    },
    {
      "anonymous": false,
      "inputs": [
        {
          "indexed": true,
          "name": "_owner",
          "type": "address"
        },
        {
          "indexed": true,
          "name": "_spender",
          "type": "address"
        },
        {
          "indexed": false,
          "name": "_value",
          "type": "uint256"
        }
      ],
      "name": "Approval",
      "type": "event"
    },
    {
      "constant": true,
      "inputs": [],
      "name": "totalSupply",
      "outputs": [
        {
          "name": "_totalSupply",
          "type": "uint256"
        }
      ],
      "payable": false,
      "stateMutability": "view",
      "type": "function"
    },
    {
      "constant": true,
      "inputs": [
        {
          "name": "_owner",
          "type": "address"
        }
      ],
      "name": "balanceOf",
      "outputs": [
        {
          "name": "balance",
          "type": "uint256"
        }
      ],
      "payable": false,
      "stateMutability": "view",
      "type": "function"
    },
    {
      "constant": true,
      "inputs": [
        {
          "name": "_owner",
          "type": "address"
        }
      ],
      "name": "getAllowedToMine",
      "outputs": [
        {
          "name": "_allowedToMine",
          "type": "uint256"
        }
      ],
      "payable": false,
      "stateMutability": "view",
      "type": "function"
    },
    {
      "constant": true,
      "inputs": [],
      "name": "getMineableSupply",
      "outputs": [
        {
          "name": "_mineableSupply",
          "type": "uint256"
        }
      ],
      "payable": false,
      "stateMutability": "view",
      "type": "function"
    },
    {
      "constant": false,
      "inputs": [
        {
          "name": "_to",
          "type": "address"
        },
        {
          "name": "_value",
          "type": "uint256"
        }
      ],
      "name": "transfer",
      "outputs": [
        {
          "name": "success",
          "type": "bool"
        }
      ],
      "payable": false,
      "stateMutability": "nonpayable",
      "type": "function"
    },
    {
      "constant": false,
      "inputs": [
        {
          "name": "_from",
          "type": "address"
        },
        {
          "name": "_to",
          "type": "address"
        },
        {
          "name": "_value",
          "type": "uint256"
        }
      ],
      "name": "transferFrom",
      "outputs": [
        {
          "name": "success",
          "type": "bool"
        }
      ],
      "payable": false,
      "stateMutability": "nonpayable",
      "type": "function"
    },
    {
      "constant": false,
      "inputs": [
        {
          "name": "_spender",
          "type": "address"
        },
        {
          "name": "_value",
          "type": "uint256"
        }
      ],
      "name": "approve",
      "outputs": [
        {
          "name": "success",
          "type": "bool"
        }
      ],
      "payable": false,
      "stateMutability": "nonpayable",
      "type": "function"
    },
    {
      "constant": true,
      "inputs": [
        {
          "name": "_owner",
          "type": "address"
        },
        {
          "name": "_spender",
          "type": "address"
        }
      ],
      "name": "allowance",
      "outputs": [
        {
          "name": "remaining",
          "type": "uint256"
        }
      ],
      "payable": false,
      "stateMutability": "view",
      "type": "function"
    },
    {
      "constant": false,
      "inputs": [
        {
          "name": "_icoAddress",
          "type": "address"
        }
      ],
      "name": "setIcoAddress",
      "outputs": [],
      "payable": false,
      "stateMutability": "nonpayable",
      "type": "function"
    },
    {
      "constant": true,
      "inputs": [
        {
          "name": "stake",
          "type": "uint256"
        },
        {
          "name": "_value",
          "type": "uint256"
        }
      ],
      "name": "calculateMinedCoinsForTX",
      "outputs": [
        {
          "name": "_minedAmount",
          "type": "uint256"
        }
      ],
      "payable": false,
      "stateMutability": "pure",
      "type": "function"
    }
  ],
  "bytecode": "0x608060405260008055600060055534801561001957600080fd5b50604051604080611335833981018060405281019080805190602001909291908051906020019092919050505081600081905550600a6000540260058190555080600660006101000a81548173ffffffffffffffffffffffffffffffffffffffff021916908373ffffffffffffffffffffffffffffffffffffffff160217905550505061128a806100ab6000396000f3006080604052600436106100e6576000357c0100000000000000000000000000000000000000000000000000000000900463ffffffff168063095ea7b3146100eb57806318160ddd1461015057806323b872dd1461017b5780632e0f2625146102005780634246ad241461022b5780636ce27c7b1461027657806370a08231146102a15780638df41c32146102f85780638f094efb1461034f578063a3f4df7e1461037a578063a9059cbb1461040a578063bd792db31461046f578063d6fb1678146104b2578063d9e55f7a146104dd578063dd62ed3e14610534578063f76f8d78146105ab575b600080fd5b3480156100f757600080fd5b50610136600480360381019080803573ffffffffffffffffffffffffffffffffffffffff1690602001909291908035906020019092919050505061063b565b604051808215151515815260200191505060405180910390f35b34801561015c57600080fd5b5061016561072d565b6040518082815260200191505060405180910390f35b34801561018757600080fd5b506101e6600480360381019080803573ffffffffffffffffffffffffffffffffffffffff169060200190929190803573ffffffffffffffffffffffffffffffffffffffff16906020019092919080359060200190929190505050610736565b604051808215151515815260200191505060405180910390f35b34801561020c57600080fd5b506102156109eb565b6040518082815260200191505060405180910390f35b34801561023757600080fd5b5061026060048036038101908080359060200190929190803590602001909291905050506109f0565b6040518082815260200191505060405180910390f35b34801561028257600080fd5b5061028b610aa7565b6040518082815260200191505060405180910390f35b3480156102ad57600080fd5b506102e2600480360381019080803573ffffffffffffffffffffffffffffffffffffffff169060200190929190505050610aaf565b6040518082815260200191505060405180910390f35b34801561030457600080fd5b5061030d610af8565b604051808273ffffffffffffffffffffffffffffffffffffffff1673ffffffffffffffffffffffffffffffffffffffff16815260200191505060405180910390f35b34801561035b57600080fd5b50610364610b1e565b6040518082815260200191505060405180910390f35b34801561038657600080fd5b5061038f610b28565b6040518080602001828103825283818151815260200191508051906020019080838360005b838110156103cf5780820151818401526020810190506103b4565b50505050905090810190601f1680156103fc5780820380516001836020036101000a031916815260200191505b509250505060405180910390f35b34801561041657600080fd5b50610455600480360381019080803573ffffffffffffffffffffffffffffffffffffffff16906020019092919080359060200190929190505050610b61565b604051808215151515815260200191505060405180910390f35b34801561047b57600080fd5b506104b0600480360381019080803573ffffffffffffffffffffffffffffffffffffffff169060200190929190505050610d00565b005b3480156104be57600080fd5b506104c7610e6a565b6040518082815260200191505060405180910390f35b3480156104e957600080fd5b5061051e600480360381019080803573ffffffffffffffffffffffffffffffffffffffff169060200190929190505050610e70565b6040518082815260200191505060405180910390f35b34801561054057600080fd5b50610595600480360381019080803573ffffffffffffffffffffffffffffffffffffffff169060200190929190803573ffffffffffffffffffffffffffffffffffffffff169060200190929190505050610eb9565b6040518082815260200191505060405180910390f35b3480156105b757600080fd5b506105c0610f40565b6040518080602001828103825283818151815260200191508051906020019080838360005b838110156106005780820151818401526020810190506105e5565b50505050905090810190601f16801561062d5780820380516001836020036101000a031916815260200191505b509250505060405180910390f35b600081600260003373ffffffffffffffffffffffffffffffffffffffff1673ffffffffffffffffffffffffffffffffffffffff16815260200190815260200160002060008573ffffffffffffffffffffffffffffffffffffffff1673ffffffffffffffffffffffffffffffffffffffff168152602001908152602001600020819055508273ffffffffffffffffffffffffffffffffffffffff163373ffffffffffffffffffffffffffffffffffffffff167f8c5be1e5ebec7d5bd14f71427d1e84f3dd0314c0f7b2291e5b200ac8c7c3b925846040518082815260200191505060405180910390a36001905092915050565b60008054905090565b600080600260008673ffffffffffffffffffffffffffffffffffffffff1673ffffffffffffffffffffffffffffffffffffffff16815260200190815260200160002060003373ffffffffffffffffffffffffffffffffffffffff1673ffffffffffffffffffffffffffffffffffffffff168152602001908152602001600020549050600073ffffffffffffffffffffffffffffffffffffffff168473ffffffffffffffffffffffffffffffffffffffff1614158015610834575082600160008773ffffffffffffffffffffffffffffffffffffffff1673ffffffffffffffffffffffffffffffffffffffff1681526020019081526020016000205410155b80156108405750828110155b151561084b57600080fd5b82600160008773ffffffffffffffffffffffffffffffffffffffff1673ffffffffffffffffffffffffffffffffffffffff168152602001908152602001600020600082825403925050819055506108a3858585610f79565b82600160008673ffffffffffffffffffffffffffffffffffffffff1673ffffffffffffffffffffffffffffffffffffffff1681526020019081526020016000206000828254019250508190555082600260008773ffffffffffffffffffffffffffffffffffffffff1673ffffffffffffffffffffffffffffffffffffffff16815260200190815260200160002060003373ffffffffffffffffffffffffffffffffffffffff1673ffffffffffffffffffffffffffffffffffffffff168152602001908152602001600020600082825403925050819055508373ffffffffffffffffffffffffffffffffffffffff168573ffffffffffffffffffffffffffffffffffffffff167fddf252ad1be2c89b69c2b068fc378daa952ba7f163c4a11628f55a4df523b3ef856040518082815260200191505060405180910390a360019150509392505050565b600881565b600080600080600080610a038789611034565b9450610a0f878961104e565b9350846008600a0a8502811515610a2257fe5b04925087871115610a57576008600a0a60646008600a0a600502811515610a4557fe5b048402811515610a5157fe5b04830192505b6008600a0a831115610a6b576008600a0a92505b86880191506008600a0a838302811515610a8157fe5b0490506008600a0a63018b16bd8202811515610a9957fe5b049550505050505092915050565b6008600a0a81565b6000600160008373ffffffffffffffffffffffffffffffffffffffff1673ffffffffffffffffffffffffffffffffffffffff168152602001908152602001600020549050919050565b600460009054906101000a900473ffffffffffffffffffffffffffffffffffffffff1681565b6000600554905090565b6040805190810160405280600b81526020017f447261676f6e676c61737300000000000000000000000000000000000000000081525081565b60008073ffffffffffffffffffffffffffffffffffffffff168373ffffffffffffffffffffffffffffffffffffffff1614151515610b9e57600080fd5b81600160003373ffffffffffffffffffffffffffffffffffffffff1673ffffffffffffffffffffffffffffffffffffffff1681526020019081526020016000205410151515610bec57600080fd5b81600160003373ffffffffffffffffffffffffffffffffffffffff1673ffffffffffffffffffffffffffffffffffffffff16815260200190815260200160002060008282540392505081905550610c44338484610f79565b81600160008573ffffffffffffffffffffffffffffffffffffffff1673ffffffffffffffffffffffffffffffffffffffff168152602001908152602001600020600082825401925050819055508273ffffffffffffffffffffffffffffffffffffffff163373ffffffffffffffffffffffffffffffffffffffff167fddf252ad1be2c89b69c2b068fc378daa952ba7f163c4a11628f55a4df523b3ef846040518082815260200191505060405180910390a36001905092915050565b600660009054906101000a900473ffffffffffffffffffffffffffffffffffffffff1673ffffffffffffffffffffffffffffffffffffffff163373ffffffffffffffffffffffffffffffffffffffff16141515610d5c57600080fd5b600073ffffffffffffffffffffffffffffffffffffffff16600460009054906101000a900473ffffffffffffffffffffffffffffffffffffffff1673ffffffffffffffffffffffffffffffffffffffff16141515610db957600080fd5b80600460006101000a81548173ffffffffffffffffffffffffffffffffffffffff021916908373ffffffffffffffffffffffffffffffffffffffff160217905550610e0261072d565b60016000600460009054906101000a900473ffffffffffffffffffffffffffffffffffffffff1673ffffffffffffffffffffffffffffffffffffffff1673ffffffffffffffffffffffffffffffffffffffff1681526020019081526020016000208190555050565b60055481565b6000600360008373ffffffffffffffffffffffffffffffffffffffff1673ffffffffffffffffffffffffffffffffffffffff168152602001908152602001600020549050919050565b6000600260008473ffffffffffffffffffffffffffffffffffffffff1673ffffffffffffffffffffffffffffffffffffffff16815260200190815260200160002060008373ffffffffffffffffffffffffffffffffffffffff1673ffffffffffffffffffffffffffffffffffffffff16815260200190815260200160002054905092915050565b6040805190810160405280600381526020017f444753000000000000000000000000000000000000000000000000000000000081525081565b600460009054906101000a900473ffffffffffffffffffffffffffffffffffffffff1673ffffffffffffffffffffffffffffffffffffffff168373ffffffffffffffffffffffffffffffffffffffff16141561102457600a8102600360008473ffffffffffffffffffffffffffffffffffffffff1673ffffffffffffffffffffffffffffffffffffffff1681526020019081526020016000206000828254019250508190555061102f565b61102e8382611067565b5b505050565b6000818310156110445781611046565b825b905092915050565b600081831061105d578161105f565b825b905092915050565b600061107b61107584610aaf565b836109f0565b905080600360008573ffffffffffffffffffffffffffffffffffffffff1673ffffffffffffffffffffffffffffffffffffffff1681526020019081526020016000205411151561115157600360008473ffffffffffffffffffffffffffffffffffffffff1673ffffffffffffffffffffffffffffffffffffffff1681526020019081526020016000205490506000600360008573ffffffffffffffffffffffffffffffffffffffff1673ffffffffffffffffffffffffffffffffffffffff1681526020019081526020016000208190555061119f565b80600360008573ffffffffffffffffffffffffffffffffffffffff1673ffffffffffffffffffffffffffffffffffffffff168152602001908152602001600020600082825403925050819055505b80600160008573ffffffffffffffffffffffffffffffffffffffff1673ffffffffffffffffffffffffffffffffffffffff16815260200190815260200160002060008282540192505081905550806000808282540192505081905550806005600082825403925050819055508273ffffffffffffffffffffffffffffffffffffffff167f3ad10ba9777a3bc21180a465e5459861d07cbdb271af9a0f10c993b365b760f8826040518082815260200191505060405180910390a25050505600a165627a7a723058204dcc2297ec03d8c4e96744646e9b66fcaeda16e57dcfa8ee70d87501f852df2b0029",
  "source": "pragma solidity ^0.4.18;\n\nimport \"./ERC20Interface.sol\";\nimport \"./SafeMath.sol\";\n\n\ncontract DGS is ERC20Interface {\n\n    string public constant NAME = \"Dragonglass\";\n    string public constant SYMBOL = \"DGS\";\n    uint public constant DECIMALS = 8;\n\n    uint256 supply = 0;\n    mapping(address => uint256) balances;\n    mapping(address => mapping (address => uint256)) allowed;\n\n    mapping (address => uint) allowedToMine;\n\n    address public allocationAddressICO;\n\n    uint256 public mineableSupply = 0;\n\n    address founder;\n\n\n    uint public constant DECIMAL_INDEX = 10**DECIMALS;\n\n    // Miner constants\n    //Represents constant 0,25892541\n    uint private constant MINING_PERCENTAGE = 25892541;\n    uint private constant STAKE_PERCENTAGE = 5 * DECIMAL_INDEX / 100;\n\n    function DGS (uint256 _initial,\n        address _founder) public {\n            supply = _initial;\n            mineableSupply = supply * 10;\n            founder = _founder;\n    }\n\n    modifier onlyFounder {\n        require(msg.sender == founder);\n        _;\n    }\n\n    function totalSupply()\n    public constant returns (uint256 _totalSupply) {\n        _totalSupply = supply;\n    }\n\n    function balanceOf(address _owner)\n    public constant returns (uint256 balance) {\n        return balances[_owner];\n    }\n\n    function getAllowedToMine(address _owner)\n    public constant returns (uint _allowedToMine) {\n        return allowedToMine[_owner];\n    }\n\n    // Get available for mining supply\n    function getMineableSupply()\n    public constant returns (uint256 _mineableSupply){\n        _mineableSupply = mineableSupply;\n    }\n\n    function transfer(address _to, uint256 _value)\n    public returns (bool success) {\n        require(_to != address(0));\n        require(balances[msg.sender] >= _value);\n        balances[msg.sender] -= _value;\n        mine(msg.sender, _to, _value);\n        balances[_to] += _value;\n        Transfer(msg.sender, _to, _value);\n        return true;\n    }\n\n    function transferFrom(address _from, address _to, uint256 _value)\n    public returns (bool success) {\n        uint256 allowance = allowed[_from][msg.sender];\n        require(_to != address(0) && balances[_from] >= _value\n            && allowance >= _value);\n            balances[_from] -= _value;\n            mine(_from, _to, _value);\n            balances[_to] += _value;\n            allowed[_from][msg.sender] -= _value;\n            Transfer(_from, _to, _value);\n            return true;\n    }\n\n    function approve(address _spender, uint256 _value)\n    public returns (bool success){\n        allowed[msg.sender][_spender] = _value;\n        Approval(msg.sender, _spender, _value);\n        return true;\n    }\n\n    function allowance(address _owner, address _spender)\n    public constant returns (uint256 remaining){\n        return  allowed[_owner][_spender];\n    }\n\n    function setIcoAddress(address _icoAddress) public onlyFounder() {\n        require(allocationAddressICO == address(0));\n        allocationAddressICO = _icoAddress;\n        balances[allocationAddressICO] = totalSupply();\n    }\n\n    function calculateMinedCoinsForTX(uint stake, uint _value)\n    public pure returns (uint _minedAmount) {\n\n        var _max = SafeMath.max256(_value, stake);\n        var _min = SafeMath.min256(_value, stake);\n\n        uint factor = _min * DECIMAL_INDEX /_max;\n\n        if(_value > stake)\n            factor += factor * STAKE_PERCENTAGE / DECIMAL_INDEX;\n        if(factor > DECIMAL_INDEX)\n            factor = DECIMAL_INDEX;\n\n        var totalStake = stake + _value;\n        var factorInCoins = totalStake * factor / DECIMAL_INDEX;\n\n        _minedAmount = factorInCoins *  MINING_PERCENTAGE / DECIMAL_INDEX;\n    }\n\n    function mine\n    (address _sender, address _receiver, uint _transactionValue) private {\n        if(_sender == allocationAddressICO) {\n            // Allow to mine x10\n            allowedToMine[_receiver] += _transactionValue * 10;\n        } else {\n            doMining(_sender, _transactionValue);\n        }\n    }\n\n    function doMining(address _miner, uint _transactionValue)\n    private {\n        uint _minedAmount = calculateMinedCoinsForTX(balanceOf(_miner), _transactionValue);\n        if(allowedToMine[_miner] <= _minedAmount) {\n            _minedAmount = allowedToMine[_miner];\n            allowedToMine[_miner] = 0;\n        } else {\n            allowedToMine[_miner] -= _minedAmount;\n        }\n        balances[_miner] += _minedAmount;\n        supply += _minedAmount;\n        mineableSupply -= _minedAmount;\n        Mined(_miner, _minedAmount);\n    }\n\n    event Mined(address indexed _miner, uint256 _minedAmount);\n}\n",
  "sourcePath": "/Users/gleb/Documents/GitHub/smart-contracts/ICO/contracts/DGS.sol",
  "compiler": {
    "name": "solc",
    "version": "0.4.24+commit.e67f0147.Emscripten.clang"
  },
  "schemaVersion": "2.0.1",
  "updatedAt": "2018-10-28T20:11:50.863Z"
}