{
  "contractName": "DGS",
  "abi": [
    {
      "constant": true,
      "inputs": [],
      "name": "name",
      "outputs": [
        {
          "name": "",
          "type": "string"
        }
      ],
      "payable": false,
      "stateMutability": "view",
      "type": "function"
    },
    {
      "constant": false,
      "inputs": [
        {
          "name": "_spender",
          "type": "address"
        },
        {
          "name": "_value",
          "type": "uint256"
        }
      ],
      "name": "approve",
      "outputs": [
        {
          "name": "success",
          "type": "bool"
        }
      ],
      "payable": false,
      "stateMutability": "nonpayable",
      "type": "function"
    },
    {
      "constant": true,
      "inputs": [],
      "name": "totalSupply",
      "outputs": [
        {
          "name": "_totalSupply",
          "type": "uint256"
        }
      ],
      "payable": false,
      "stateMutability": "view",
      "type": "function"
    },
    {
      "constant": false,
      "inputs": [
        {
          "name": "_from",
          "type": "address"
        },
        {
          "name": "_to",
          "type": "address"
        },
        {
          "name": "_value",
          "type": "uint256"
        }
      ],
      "name": "transferFrom",
      "outputs": [
        {
          "name": "success",
          "type": "bool"
        }
      ],
      "payable": false,
      "stateMutability": "nonpayable",
      "type": "function"
    },
    {
      "constant": true,
      "inputs": [],
      "name": "decimals",
      "outputs": [
        {
          "name": "",
          "type": "uint256"
        }
      ],
      "payable": false,
      "stateMutability": "view",
      "type": "function"
    },
    {
      "constant": true,
      "inputs": [],
      "name": "getMinableSupply",
      "outputs": [
        {
          "name": "_minableSupply",
          "type": "uint256"
        }
      ],
      "payable": false,
      "stateMutability": "view",
      "type": "function"
    },
    {
      "constant": false,
      "inputs": [],
      "name": "icoFinished",
      "outputs": [],
      "payable": false,
      "stateMutability": "nonpayable",
      "type": "function"
    },
    {
      "constant": true,
      "inputs": [],
      "name": "getCurrentState",
      "outputs": [
        {
          "name": "_state",
          "type": "uint8"
        }
      ],
      "payable": false,
      "stateMutability": "view",
      "type": "function"
    },
    {
      "constant": false,
      "inputs": [
        {
          "name": "_miner",
          "type": "address"
        },
        {
          "name": "_value",
          "type": "uint256"
        }
      ],
      "name": "miner",
      "outputs": [
        {
          "name": "_minedAmount",
          "type": "uint256"
        }
      ],
      "payable": false,
      "stateMutability": "nonpayable",
      "type": "function"
    },
    {
      "constant": true,
      "inputs": [
        {
          "name": "_miner",
          "type": "address"
        },
        {
          "name": "_value",
          "type": "uint256"
        }
      ],
      "name": "newPeriodTargetTime",
      "outputs": [
        {
          "name": "",
          "type": "uint256"
        }
      ],
      "payable": false,
      "stateMutability": "view",
      "type": "function"
    },
    {
      "constant": true,
      "inputs": [
        {
          "name": "_owner",
          "type": "address"
        }
      ],
      "name": "balanceOf",
      "outputs": [
        {
          "name": "balance",
          "type": "uint256"
        }
      ],
      "payable": false,
      "stateMutability": "view",
      "type": "function"
    },
    {
      "constant": true,
      "inputs": [],
      "name": "getTargetPeriodDate",
      "outputs": [
        {
          "name": "_date",
          "type": "uint256"
        }
      ],
      "payable": false,
      "stateMutability": "view",
      "type": "function"
    },
    {
      "constant": true,
      "inputs": [],
      "name": "allocationAddressICO",
      "outputs": [
        {
          "name": "",
          "type": "address"
        }
      ],
      "payable": false,
      "stateMutability": "view",
      "type": "function"
    },
    {
      "constant": true,
      "inputs": [
        {
          "name": "_to",
          "type": "address"
        },
        {
          "name": "_value",
          "type": "uint256"
        }
      ],
      "name": "symbol",
      "outputs": [
        {
          "name": "",
          "type": "string"
        }
      ],
      "payable": false,
      "stateMutability": "view",
      "type": "function"
    },
    {
      "constant": false,
      "inputs": [
        {
          "name": "_to",
          "type": "address"
        },
        {
          "name": "_value",
          "type": "uint256"
        }
      ],
      "name": "transfer",
      "outputs": [
        {
          "name": "success",
          "type": "bool"
        }
      ],
      "payable": false,
      "stateMutability": "nonpayable",
      "type": "function"
    },
    {
      "constant": false,
      "inputs": [
        {
          "name": "_icoAddress",
          "type": "address"
        }
      ],
      "name": "setIcoAddress",
      "outputs": [
        {
          "name": "_targetBlock",
          "type": "uint256"
        }
      ],
      "payable": false,
      "stateMutability": "nonpayable",
      "type": "function"
    },
    {
      "constant": true,
      "inputs": [
        {
          "name": "_owner",
          "type": "address"
        },
        {
          "name": "_spender",
          "type": "address"
        }
      ],
      "name": "state",
      "outputs": [
        {
          "name": "",
          "type": "uint8"
        }
      ],
      "payable": false,
      "stateMutability": "view",
      "type": "function"
    },
    {
      "constant": true,
      "inputs": [
        {
          "name": "_owner",
          "type": "address"
        },
        {
          "name": "_spender",
          "type": "address"
        }
      ],
      "name": "allowance",
      "outputs": [
        {
          "name": "remaining",
          "type": "uint256"
        }
      ],
      "payable": false,
      "stateMutability": "view",
      "type": "function"
    },
    {
      "inputs": [
        {
          "name": "_initial",
          "type": "uint256"
        },
        {
          "name": "_founder1",
          "type": "address"
        },
        {
          "name": "_founder2",
          "type": "address"
        }
      ],
      "payable": false,
      "stateMutability": "view",
      "type": "function",
      "constant": true,
      "name": "minableSupplly",
      "outputs": [
        {
          "name": "",
          "type": "uint256"
        }
      ]
    },
    {
      "anonymous": false,
      "inputs": [
        {
          "indexed": true,
          "name": "_initial",
          "type": "uint256"
        },
        {
          "indexed": true,
          "name": "_founder1",
          "type": "address"
        },
        {
          "indexed": false,
          "name": "_founder2",
          "type": "address"
        }
      ],
      "name": "Transfer",
      "type": "constructor",
      "payable": false,
      "stateMutability": "nonpayable"
    },
    {
      "anonymous": false,
      "inputs": [
        {
          "indexed": true,
          "name": "_miner",
          "type": "address"
        },
        {
          "indexed": false,
          "name": "_minedAmount",
          "type": "uint256"
        },
        {
          "indexed": false,
          "name": "_value",
          "type": "uint256"
        }
      ],
      "name": "Mined",
      "type": "event"
    },
    {
      "anonymous": false,
      "inputs": [
        {
          "indexed": true,
          "name": "_from",
          "type": "address"
        },
        {
          "indexed": true,
          "name": "_to",
          "type": "address"
        },
        {
          "indexed": false,
          "name": "_value",
          "type": "uint256"
        }
      ],
      "name": "Transfer",
      "type": "event"
    },
    {
      "anonymous": false,
      "inputs": [
        {
          "indexed": true,
          "name": "_owner",
          "type": "address"
        },
        {
          "indexed": true,
          "name": "_spender",
          "type": "address"
        },
        {
          "indexed": false,
          "name": "_value",
          "type": "uint256"
        }
      ],
      "name": "Approval",
      "type": "event"
    }
  ],
  "bytecode": "0x60606040526046600055600060055560006008556000600955341561002357600080fd5b6040516060806119298339810160405280805190602001909190805190602001909190805190602001909190505082600081905550600a6000540260058190555081600660006101000a81548173ffffffffffffffffffffffffffffffffffffffff021916908373ffffffffffffffffffffffffffffffffffffffff16021790555080600760006101000a81548173ffffffffffffffffffffffffffffffffffffffff021916908373ffffffffffffffffffffffffffffffffffffffff1602179055506000600a60006101000a81548160ff0219169083600481111561010557fe5b021790555050505061180d8061011c6000396000f300606060405260043610610107576000357c0100000000000000000000000000000000000000000000000000000000900463ffffffff16806306fdde031461010c578063095ea7b31461019a57806318160ddd146101f457806323b872dd1461021d578063313ce5671461029657806332cee2eb146102bf578063356e2927146102e8578063378aa701146102fd5780634fb3fd84146103345780636dfc69381461038a57806370a08231146103b35780638725ea8f146104005780638df41c321461042957806395d89b411461047e578063a9059cbb1461050c578063bd792db314610566578063c19d93fb1461059f578063dd62ed3e146105d6578063f9ece25214610642575b600080fd5b341561011757600080fd5b61011f61066b565b6040518080602001828103825283818151815260200191508051906020019080838360005b8381101561015f578082015181840152602081019050610144565b50505050905090810190601f16801561018c5780820380516001836020036101000a031916815260200191505b509250505060405180910390f35b34156101a557600080fd5b6101da600480803573ffffffffffffffffffffffffffffffffffffffff169060200190919080359060200190919050506106a4565b604051808215151515815260200191505060405180910390f35b34156101ff57600080fd5b610207610796565b6040518082815260200191505060405180910390f35b341561022857600080fd5b61027c600480803573ffffffffffffffffffffffffffffffffffffffff1690602001909190803573ffffffffffffffffffffffffffffffffffffffff1690602001909190803590602001909190505061079f565b604051808215151515815260200191505060405180910390f35b34156102a157600080fd5b6102a9610a54565b6040518082815260200191505060405180910390f35b34156102ca57600080fd5b6102d2610a59565b6040518082815260200191505060405180910390f35b34156102f357600080fd5b6102fb610a63565b005b341561030857600080fd5b610310610ae5565b6040518082600481111561032057fe5b60ff16815260200191505060405180910390f35b341561033f57600080fd5b610374600480803573ffffffffffffffffffffffffffffffffffffffff16906020019091908035906020019091905050610afc565b6040518082815260200191505060405180910390f35b341561039557600080fd5b61039d610bae565b6040518082815260200191505060405180910390f35b34156103be57600080fd5b6103ea600480803573ffffffffffffffffffffffffffffffffffffffff16906020019091905050610bb4565b6040518082815260200191505060405180910390f35b341561040b57600080fd5b610413610bfd565b6040518082815260200191505060405180910390f35b341561043457600080fd5b61043c610c07565b604051808273ffffffffffffffffffffffffffffffffffffffff1673ffffffffffffffffffffffffffffffffffffffff16815260200191505060405180910390f35b341561048957600080fd5b610491610c2d565b6040518080602001828103825283818151815260200191508051906020019080838360005b838110156104d15780820151818401526020810190506104b6565b50505050905090810190601f1680156104fe5780820380516001836020036101000a031916815260200191505b509250505060405180910390f35b341561051757600080fd5b61054c600480803573ffffffffffffffffffffffffffffffffffffffff16906020019091908035906020019091905050610c66565b604051808215151515815260200191505060405180910390f35b341561057157600080fd5b61059d600480803573ffffffffffffffffffffffffffffffffffffffff16906020019091905050610e05565b005b34156105aa57600080fd5b6105b2610fc7565b604051808260048111156105c257fe5b60ff16815260200191505060405180910390f35b34156105e157600080fd5b61062c600480803573ffffffffffffffffffffffffffffffffffffffff1690602001909190803573ffffffffffffffffffffffffffffffffffffffff16906020019091905050610fda565b6040518082815260200191505060405180910390f35b341561064d57600080fd5b610655611061565b6040518082815260200191505060405180910390f35b6040805190810160405280600b81526020017f447261676f6e676c61737300000000000000000000000000000000000000000081525081565b600081600260003373ffffffffffffffffffffffffffffffffffffffff1673ffffffffffffffffffffffffffffffffffffffff16815260200190815260200160002060008573ffffffffffffffffffffffffffffffffffffffff1673ffffffffffffffffffffffffffffffffffffffff168152602001908152602001600020819055508273ffffffffffffffffffffffffffffffffffffffff163373ffffffffffffffffffffffffffffffffffffffff167f8c5be1e5ebec7d5bd14f71427d1e84f3dd0314c0f7b2291e5b200ac8c7c3b925846040518082815260200191505060405180910390a36001905092915050565b60008054905090565b600080600260008673ffffffffffffffffffffffffffffffffffffffff1673ffffffffffffffffffffffffffffffffffffffff16815260200190815260200160002060003373ffffffffffffffffffffffffffffffffffffffff1673ffffffffffffffffffffffffffffffffffffffff168152602001908152602001600020549050600073ffffffffffffffffffffffffffffffffffffffff168473ffffffffffffffffffffffffffffffffffffffff161415801561089d575082600160008773ffffffffffffffffffffffffffffffffffffffff1673ffffffffffffffffffffffffffffffffffffffff1681526020019081526020016000205410155b80156108a95750828110155b15156108b457600080fd5b82600160008773ffffffffffffffffffffffffffffffffffffffff1673ffffffffffffffffffffffffffffffffffffffff1681526020019081526020016000206000828254039250508190555061090c858585611067565b82600160008673ffffffffffffffffffffffffffffffffffffffff1673ffffffffffffffffffffffffffffffffffffffff1681526020019081526020016000206000828254019250508190555082600260008773ffffffffffffffffffffffffffffffffffffffff1673ffffffffffffffffffffffffffffffffffffffff16815260200190815260200160002060003373ffffffffffffffffffffffffffffffffffffffff1673ffffffffffffffffffffffffffffffffffffffff168152602001908152602001600020600082825403925050819055508373ffffffffffffffffffffffffffffffffffffffff168573ffffffffffffffffffffffffffffffffffffffff167fddf252ad1be2c89b69c2b068fc378daa952ba7f163c4a11628f55a4df523b3ef856040518082815260200191505060405180910390a360019150509392505050565b600881565b6000600554905090565b600460009054906101000a900473ffffffffffffffffffffffffffffffffffffffff1673ffffffffffffffffffffffffffffffffffffffff163373ffffffffffffffffffffffffffffffffffffffff16141515610abf57600080fd5b6000600a60006101000a81548160ff02191690836004811115610ade57fe5b0217905550565b6000600a60009054906101000a900460ff16905090565b6000806000806000806000806000610b138b610bb4565b97506008600a0a9650600a87600102811515610b2b57fe5b049550620186a08761419102811515610b4057fe5b04945060469350610b518a89611376565b9250610b5d8a89611390565b91508686860384898502811515610b7057fe5b0402811515610b7b57fe5b0486019050868a6064868b02811515610b9057fe5b04830102811515610b9d57fe5b049850505050505050505092915050565b60085481565b6000600160008373ffffffffffffffffffffffffffffffffffffffff1673ffffffffffffffffffffffffffffffffffffffff168152602001908152602001600020549050919050565b6000600854905090565b600460009054906101000a900473ffffffffffffffffffffffffffffffffffffffff1681565b6040805190810160405280600381526020017f444753000000000000000000000000000000000000000000000000000000000081525081565b60008073ffffffffffffffffffffffffffffffffffffffff168373ffffffffffffffffffffffffffffffffffffffff1614151515610ca357600080fd5b81600160003373ffffffffffffffffffffffffffffffffffffffff1673ffffffffffffffffffffffffffffffffffffffff1681526020019081526020016000205410151515610cf157600080fd5b81600160003373ffffffffffffffffffffffffffffffffffffffff1673ffffffffffffffffffffffffffffffffffffffff16815260200190815260200160002060008282540392505081905550610d49338484611067565b81600160008573ffffffffffffffffffffffffffffffffffffffff1673ffffffffffffffffffffffffffffffffffffffff168152602001908152602001600020600082825401925050819055508273ffffffffffffffffffffffffffffffffffffffff163373ffffffffffffffffffffffffffffffffffffffff167fddf252ad1be2c89b69c2b068fc378daa952ba7f163c4a11628f55a4df523b3ef846040518082815260200191505060405180910390a36001905092915050565b600660009054906101000a900473ffffffffffffffffffffffffffffffffffffffff1673ffffffffffffffffffffffffffffffffffffffff163373ffffffffffffffffffffffffffffffffffffffff161480610eae5750600760009054906101000a900473ffffffffffffffffffffffffffffffffffffffff1673ffffffffffffffffffffffffffffffffffffffff163373ffffffffffffffffffffffffffffffffffffffff16145b1515610eb957600080fd5b600073ffffffffffffffffffffffffffffffffffffffff16600460009054906101000a900473ffffffffffffffffffffffffffffffffffffffff1673ffffffffffffffffffffffffffffffffffffffff16141515610f1657600080fd5b80600460006101000a81548173ffffffffffffffffffffffffffffffffffffffff021916908373ffffffffffffffffffffffffffffffffffffffff160217905550610f5f610796565b60016000600460009054906101000a900473ffffffffffffffffffffffffffffffffffffffff1673ffffffffffffffffffffffffffffffffffffffff1673ffffffffffffffffffffffffffffffffffffffff1681526020019081526020016000208190555050565b600a60009054906101000a900460ff1681565b6000600260008473ffffffffffffffffffffffffffffffffffffffff1673ffffffffffffffffffffffffffffffffffffffff16815260200190815260200160002060008373ffffffffffffffffffffffffffffffffffffffff1673ffffffffffffffffffffffffffffffffffffffff16815260200190815260200160002054905092915050565b60055481565b6001600481111561107457fe5b600a60009054906101000a900460ff16600481111561108f57fe5b141561115057600460009054906101000a900473ffffffffffffffffffffffffffffffffffffffff1673ffffffffffffffffffffffffffffffffffffffff168373ffffffffffffffffffffffffffffffffffffffff16141561114057600a8102600360008473ffffffffffffffffffffffffffffffffffffffff1673ffffffffffffffffffffffffffffffffffffffff1681526020019081526020016000206000828254019250508190555061114b565b61114a83826113a9565b5b611371565b6002600481111561115d57fe5b600a60009054906101000a900460ff16600481111561117857fe5b141561118d576111888382611588565b611370565b60048081111561119957fe5b600a60009054906101000a900460ff1660048111156111b457fe5b14156111c9576111c48382611588565b61136f565b600360048111156111d657fe5b600a60009054906101000a900460ff1660048111156111f157fe5b1415611206576112018382611726565b61136e565b6000600481111561121357fe5b600a60009054906101000a900460ff16600481111561122e57fe5b141561136d57600073ffffffffffffffffffffffffffffffffffffffff16600460009054906101000a900473ffffffffffffffffffffffffffffffffffffffff1673ffffffffffffffffffffffffffffffffffffffff161415151561129257600080fd5b6001600a60006101000a81548160ff021916908360048111156112b157fe5b0217905550600460009054906101000a900473ffffffffffffffffffffffffffffffffffffffff1673ffffffffffffffffffffffffffffffffffffffff168373ffffffffffffffffffffffffffffffffffffffff16141561136157600a8102600360008473ffffffffffffffffffffffffffffffffffffffff1673ffffffffffffffffffffffffffffffffffffffff1681526020019081526020016000206000828254019250508190555061136c565b61136b83826113a9565b5b5b5b5b5b5b505050565b6000818310156113865781611388565b825b905092915050565b600081831061139f57816113a1565b825b905092915050565b60006113b58383610afc565b905080600360008573ffffffffffffffffffffffffffffffffffffffff1673ffffffffffffffffffffffffffffffffffffffff1681526020019081526020016000205411151561148b57600360008473ffffffffffffffffffffffffffffffffffffffff1673ffffffffffffffffffffffffffffffffffffffff1681526020019081526020016000205490506000600360008573ffffffffffffffffffffffffffffffffffffffff1673ffffffffffffffffffffffffffffffffffffffff168152602001908152602001600020819055506114d9565b80600360008573ffffffffffffffffffffffffffffffffffffffff1673ffffffffffffffffffffffffffffffffffffffff168152602001908152602001600020600082825403925050819055505b80600160008573ffffffffffffffffffffffffffffffffffffffff1673ffffffffffffffffffffffffffffffffffffffff168152602001908152602001600020600082825401925050819055508060008082825401925050819055508273ffffffffffffffffffffffffffffffffffffffff167f3ad10ba9777a3bc21180a465e5459861d07cbdb271af9a0f10c993b365b760f8826040518082815260200191505060405180910390a2505050565b60006115948383610afc565b90506005548110151561166657600554600160008573ffffffffffffffffffffffffffffffffffffffff1673ffffffffffffffffffffffffffffffffffffffff1681526020019081526020016000206000828254019250508190555060055460008082825401925050819055508273ffffffffffffffffffffffffffffffffffffffff167f3ad10ba9777a3bc21180a465e5459861d07cbdb271af9a0f10c993b365b760f86005546040518082815260200191505060405180910390a26000600581905550611661611783565b611721565b8060056000828254039250508190555080600160008573ffffffffffffffffffffffffffffffffffffffff1673ffffffffffffffffffffffffffffffffffffffff168152602001908152602001600020600082825401925050819055508060008082825401925050819055508273ffffffffffffffffffffffffffffffffffffffff167f3ad10ba9777a3bc21180a465e5459861d07cbdb271af9a0f10c993b365b760f8826040518082815260200191505060405180910390a25b505050565b600854421015151561173757600080fd5b600b6009541115151561174957600080fd5b6004600a60006101000a81548160ff0219169083600481111561176857fe5b02179055506117756117c9565b61177f8282611588565b5050565b600160096000828254019250508190555062015180601e0242016008819055506003600a60006101000a81548160ff021916908360048111156117c257fe5b0217905550565b650a1b012b27006005600082825401925050819055505600a165627a7a7230582052298019cfedab40722fb032ff4976e71eb5965d8c8f27c9690124160478efbf0029",
  "source": "pragma solidity ^0.4.11;\n\nimport \"./ERC20Interface.sol\";\nimport \"./SafeMath.sol\";\n\ncontract DGS is ERC20Interface {\n\n    string public constant name = \"Dragonglass\";\n    string public constant symbol = \"DGS\";\n    uint public constant decimals = 8;\n\n    // Total tokens supply\n    uint256 supply = 70;\n    mapping(address => uint256) balances;\n    mapping(address => mapping (address => uint256)) allowed;\n\n    // How many tokens address can mine during the ICO\n    mapping (address => uint) allowedToMineDuringICO;\n\n    // Address of ICO contract\n    address public allocationAddressICO;\n\n    // Amount of tokens avalable for mining\n    uint256 public minableSupplly = 0;\n\n    // Founder addresses\n    address founder1;\n    address founder2;\n\n    uint public newPeriodTargetTime = 0;\n\n    // Period legth in days\n    uint private constant periodLentgh = 30;\n    uint private constant miningPeriodsMax = 11;\n    uint private miningPeriodsPassed = 0;\n\n    enum State {\n        Sleeping,\n        ICOMining,\n        InitialMining,\n        WaitingForPeriodMining,\n        PeriodMining\n    }\n\n    // Curent State\n    State public state;\n\n    function DGS (uint256 _initial,\n        address _founder1,\n        address _founder2\n        ) public {\n            supply = _initial;\n            minableSupplly = supply * 10;\n            founder1 = _founder1;\n            founder2 = _founder2;\n            state = State.Sleeping;\n    }\n\n    modifier onlyFounder {\n        require(msg.sender == founder1 ||\n            msg.sender == founder2);\n        _;\n    }\n\n    // Get total token supply\n    function totalSupply()\n    public constant returns (uint256 _totalSupply) {\n        _totalSupply = supply;\n    }\n\n    // Get specific account balance\n    function balanceOf(address _owner)\n    public constant returns (uint256 balance) {\n        return balances[_owner];\n    }\n\n    function getCurrentState()\n    public constant returns (State _state) {\n        _state = state;\n    }\n\n    // Get available for mining supply\n    function getMinableSupply()\n    public constant returns (uint256 _minableSupply){\n        _minableSupply = minableSupplly;\n    }\n\n    // Get next mining period date\n    function getTargetPeriodDate()\n    public constant returns (uint _date) {\n        _date = newPeriodTargetTime;\n    }\n\n    // Send _value tokens to the address _to\n    function transfer(address _to, uint256 _value)\n    public returns (bool success) {\n        require(_to != address(0));\n        require(balances[msg.sender] >= _value);\n        balances[msg.sender] -= _value;\n        mine(msg.sender, _to, _value);\n        balances[_to] += _value;\n        Transfer(msg.sender, _to, _value);\n        return true;\n    }\n\n    // Send _value of tokens from address one address to another (withdraw)\n    function transferFrom(address _from, address _to, uint256 _value)\n    public returns (bool success) {\n        uint256 allowance = allowed[_from][msg.sender];\n        require(_to != address(0) && balances[_from] >= _value\n            && allowance >= _value);\n            balances[_from] -= _value;\n            mine(_from, _to, _value);\n            balances[_to] += _value;\n            allowed[_from][msg.sender] -= _value;\n            Transfer(_from, _to, _value);\n            return true;\n    }\n\n    // Allow _spender to withdraw from sender account _value times\n    function approve(address _spender, uint256 _value)\n    public returns (bool success){\n        allowed[msg.sender][_spender] = _value;\n        Approval(msg.sender, _spender, _value);\n        return true;\n    }\n\n    // Get the amount which _spender is allowed to withdraw from _owner\n    function allowance(address _owner, address _spender)\n    public constant returns (uint256 remaining){\n        return  allowed[_owner][_spender];\n    }\n\n    // Set ICO contract address\n    function setIcoAddress(address _icoAddress) public onlyFounder() {\n        require(allocationAddressICO == address(0));\n        allocationAddressICO = _icoAddress;\n        balances[allocationAddressICO] = totalSupply();\n    }\n\n    function mine\n    (address _sender, address _receiver, uint _transactionValue) private {\n        if(state == State.ICOMining) {\n            if(_sender == allocationAddressICO) {\n                // Allow to mine x10\n                allowedToMineDuringICO[_receiver] += _transactionValue * 10;\n            } else {\n                doIcoMining(_sender, _transactionValue);\n            }\n        }\n        else if(state == State.InitialMining) {\n            doMining(_sender, _transactionValue);\n        }\n        else if(state == State.PeriodMining) {\n            doMining(_sender, _transactionValue);\n        }\n        else if(state == State.WaitingForPeriodMining) {\n            checkPeriod(_sender, _transactionValue);\n        }\n        else if(state == State.Sleeping) {\n            require(allocationAddressICO != address(0));\n            state = State.ICOMining;\n\n            if(_sender == allocationAddressICO) {\n                // Allow to mine x10\n                allowedToMineDuringICO[_receiver] += _transactionValue * 10;\n            } else {\n                doIcoMining(_sender, _transactionValue);\n            }\n        }\n    }\n\n    function doIcoMining(address _miner, uint _transactionValue)\n    private {\n        uint _minedAmount = miner(_miner, _transactionValue);\n        if(allowedToMineDuringICO[_miner] <= _minedAmount) {\n            _minedAmount = allowedToMineDuringICO[_miner];\n            allowedToMineDuringICO[_miner] = 0;\n        } else {\n            allowedToMineDuringICO[_miner] -= _minedAmount;\n        }\n        balances[_miner] += _minedAmount;\n        supply += _minedAmount;\n        Mined(_miner, _minedAmount);\n    }\n\n    function doMining(address _miner, uint _transactionValue)\n    private {\n        uint _tokensToBeMined = miner(_miner, _transactionValue);\n\n        if(_tokensToBeMined >= minableSupplly) {\n            balances[_miner] += minableSupplly;\n            supply += minableSupplly;\n            Mined(_miner, minableSupplly);\n            minableSupplly = 0;\n            stageExpired();\n            return;\n        }\n\n        minableSupplly -= _tokensToBeMined;\n        balances[_miner] += _tokensToBeMined;\n        supply += _tokensToBeMined;\n        Mined(_miner, _tokensToBeMined);\n    }\n\n    // Returns amount of mined coins\n    function miner(address _miner, uint _value)\n    public returns (uint _minedAmount) {\n\n        uint stake = balanceOf(_miner);\n        uint decimalIndex = 10**decimals;\n        uint minLimit = 1 * decimalIndex/10;\n        uint maxLimit = 16785 * decimalIndex/100000;\n        uint stakeIndex = 70;\n\n        var _max = SafeMath.max256(_value, stake);\n        var _min = SafeMath.min256(_value, stake);\n\n        uint factor = (minLimit + (_min * decimalIndex/_max)* (maxLimit-minLimit) / decimalIndex);\n        _minedAmount = (factor + stake*stakeIndex/100) *_value/decimalIndex;\n    }\n\n    // Called after minale supply is expired\n    function stageExpired() private {\n        miningPeriodsPassed += 1;\n        newPeriodTargetTime = block.timestamp + periodLentgh * 1 days;\n        state = State.WaitingForPeriodMining;\n    }\n\n    function checkPeriod(address _miner, uint256 _value) private {\n        require(block.timestamp >= newPeriodTargetTime);\n        require(miningPeriodsPassed <= miningPeriodsMax);\n        state = State.PeriodMining;\n        setMinableSupply();\n        doMining(_miner, _value);\n    }\n\n    function setMinableSupply() private {\n        minableSupplly += 11111100000000;\n    }\n\n    // Called by ICO contract when ICO is over\n    function icoFinished() public {\n        require(msg.sender == allocationAddressICO);\n        state = State.Sleeping;\n    }\n\n    event Mined(address indexed _miner, uint256 _minedAmount);\n}\n",
  "sourcePath": "/Users/gleb/Documents/GitHub/DGS/contracts/DGS.sol",
  "compiler": {
    "name": "solc",
    "version": "0.4.18+commit.9cf6e910.Emscripten.clang"
  },
  "schemaVersion": "1.0.1",
  "updatedAt": "2017-12-31T15:13:33.330Z"
}