{
  "contractName": "DgsICO",
  "abi": [
    {
      "constant": false,
      "inputs": [],
      "name": "launch",
      "outputs": [],
      "payable": false,
      "stateMutability": "nonpayable",
      "type": "function"
    },
    {
      "constant": false,
      "inputs": [],
      "name": "resume",
      "outputs": [],
      "payable": false,
      "stateMutability": "nonpayable",
      "type": "function"
    },
    {
      "constant": true,
      "inputs": [
        {
          "name": "_address",
          "type": "address"
        }
      ],
      "name": "getLeftInvestmentAllowance",
      "outputs": [
        {
          "name": "_leftInvestmentAllowance",
          "type": "uint256"
        }
      ],
      "payable": false,
      "stateMutability": "view",
      "type": "function"
    },
    {
      "constant": true,
      "inputs": [],
      "name": "DECIMALS",
      "outputs": [
        {
          "name": "",
          "type": "uint256"
        }
      ],
      "payable": false,
      "stateMutability": "view",
      "type": "function"
    },
    {
      "constant": false,
      "inputs": [
        {
          "name": "_validator",
          "type": "address"
        }
      ],
      "name": "removeValidator",
      "outputs": [],
      "payable": false,
      "stateMutability": "nonpayable",
      "type": "function"
    },
    {
      "constant": true,
      "inputs": [],
      "name": "MAX_INVESTMENT",
      "outputs": [
        {
          "name": "",
          "type": "uint256"
        }
      ],
      "payable": false,
      "stateMutability": "view",
      "type": "function"
    },
    {
      "constant": false,
      "inputs": [
        {
          "name": "_validator",
          "type": "address"
        }
      ],
      "name": "addValidator",
      "outputs": [],
      "payable": false,
      "stateMutability": "nonpayable",
      "type": "function"
    },
    {
      "constant": false,
      "inputs": [
        {
          "name": "_address",
          "type": "address"
        }
      ],
      "name": "removeVerifiedAddress",
      "outputs": [],
      "payable": false,
      "stateMutability": "nonpayable",
      "type": "function"
    },
    {
      "constant": true,
      "inputs": [],
      "name": "MIN_INVESTMENT",
      "outputs": [
        {
          "name": "",
          "type": "uint256"
        }
      ],
      "payable": false,
      "stateMutability": "view",
      "type": "function"
    },
    {
      "constant": true,
      "inputs": [],
      "name": "offeringClosed",
      "outputs": [
        {
          "name": "",
          "type": "bool"
        }
      ],
      "payable": false,
      "stateMutability": "view",
      "type": "function"
    },
    {
      "constant": true,
      "inputs": [],
      "name": "dgsToken",
      "outputs": [
        {
          "name": "",
          "type": "address"
        }
      ],
      "payable": false,
      "stateMutability": "view",
      "type": "function"
    },
    {
      "constant": true,
      "inputs": [],
      "name": "DECIMAL_INDEX",
      "outputs": [
        {
          "name": "",
          "type": "uint256"
        }
      ],
      "payable": false,
      "stateMutability": "view",
      "type": "function"
    },
    {
      "constant": true,
      "inputs": [],
      "name": "offeringPaused",
      "outputs": [
        {
          "name": "",
          "type": "bool"
        }
      ],
      "payable": false,
      "stateMutability": "view",
      "type": "function"
    },
    {
      "constant": false,
      "inputs": [],
      "name": "pause",
      "outputs": [],
      "payable": false,
      "stateMutability": "nonpayable",
      "type": "function"
    },
    {
      "constant": true,
      "inputs": [],
      "name": "PRICE",
      "outputs": [
        {
          "name": "",
          "type": "uint256"
        }
      ],
      "payable": false,
      "stateMutability": "view",
      "type": "function"
    },
    {
      "constant": true,
      "inputs": [],
      "name": "tokensLeft",
      "outputs": [
        {
          "name": "",
          "type": "uint256"
        }
      ],
      "payable": false,
      "stateMutability": "view",
      "type": "function"
    },
    {
      "constant": false,
      "inputs": [
        {
          "name": "_address",
          "type": "address"
        }
      ],
      "name": "verifyAddress",
      "outputs": [],
      "payable": false,
      "stateMutability": "nonpayable",
      "type": "function"
    },
    {
      "inputs": [
        {
          "name": "_tokenAddress",
          "type": "address"
        },
        {
          "name": "_founder",
          "type": "address"
        }
      ],
      "payable": false,
      "stateMutability": "nonpayable",
      "type": "constructor"
    },
    {
      "payable": true,
      "stateMutability": "payable",
      "type": "fallback"
    }
  ],
  "bytecode": "0x606060405260006002556000600360006101000a81548160ff0219169083151502179055506001600360016101000a81548160ff021916908315150217905550341561004a57600080fd5b604051604080610f5283398101604052808051906020019091908051906020019091905050816000806101000a81548173ffffffffffffffffffffffffffffffffffffffff021916908373ffffffffffffffffffffffffffffffffffffffff16021790555080600160006101000a81548173ffffffffffffffffffffffffffffffffffffffff021916908373ffffffffffffffffffffffffffffffffffffffff1602179055505050610e51806101016000396000f3006060604052600436106100f1576000357c0100000000000000000000000000000000000000000000000000000000900463ffffffff16806301339c211461046d578063046f7da21461048257806306de4127146104975780632e0f2625146104e457806340a141ff1461050d5780634c76361e146105465780634d238c8e1461056f5780634e6b558a146105a85780634ef8ff33146105e1578063559d3d4b1461060a57806362a81fa4146106375780636ce27c7b1461068c578063750008cb146106b55780638456cb59146106e25780638d859f3e146106f7578063b31f8f9314610720578063fcb2cafc14610749575b600080600360009054906101000a900460ff1615801561011e5750600360019054906101000a900460ff16155b151561012957600080fd5b66038d7ea4c68000341015151561013f57600080fd5b678ac7230489e8000034600660003373ffffffffffffffffffffffffffffffffffffffff1673ffffffffffffffffffffffffffffffffffffffff16815260200190815260200160002054011115806101e05750600560003373ffffffffffffffffffffffffffffffffffffffff1673ffffffffffffffffffffffffffffffffffffffff16815260200190815260200160002060009054906101000a900460ff165b15156101eb57600080fd5b65188e6d68b0006008600a0a340281151561020257fe5b049150600090508160025411151561025d57600254915060006002819055506001600360006101000a81548160ff0219169083151502179055506008600a0a65188e6d68b000830281151561025357fe5b043403905061026e565b816002600082825403925050819055505b803403600660003373ffffffffffffffffffffffffffffffffffffffff1673ffffffffffffffffffffffffffffffffffffffff16815260200190815260200160002060008282540192505081905550600160009054906101000a900473ffffffffffffffffffffffffffffffffffffffff1673ffffffffffffffffffffffffffffffffffffffff166108fc3073ffffffffffffffffffffffffffffffffffffffff16319081150290604051600060405180830381858888f19350505050151561033657600080fd5b6000809054906101000a900473ffffffffffffffffffffffffffffffffffffffff1673ffffffffffffffffffffffffffffffffffffffff1663a9059cbb33846000604051602001526040518363ffffffff167c0100000000000000000000000000000000000000000000000000000000028152600401808373ffffffffffffffffffffffffffffffffffffffff1673ffffffffffffffffffffffffffffffffffffffff16815260200182815260200192505050602060405180830381600087803b151561040257600080fd5b6102c65a03f1151561041357600080fd5b5050506040518051905050600081141515610469573373ffffffffffffffffffffffffffffffffffffffff166108fc829081150290604051600060405180830381858888f19350505050151561046857600080fd5b5b5050005b341561047857600080fd5b610480610782565b005b341561048d57600080fd5b6104956108fc565b005b34156104a257600080fd5b6104ce600480803573ffffffffffffffffffffffffffffffffffffffff16906020019091905050610975565b6040518082815260200191505060405180910390f35b34156104ef57600080fd5b6104f7610a40565b6040518082815260200191505060405180910390f35b341561051857600080fd5b610544600480803573ffffffffffffffffffffffffffffffffffffffff16906020019091905050610a45565b005b341561055157600080fd5b610559610afc565b6040518082815260200191505060405180910390f35b341561057a57600080fd5b6105a6600480803573ffffffffffffffffffffffffffffffffffffffff16906020019091905050610b08565b005b34156105b357600080fd5b6105df600480803573ffffffffffffffffffffffffffffffffffffffff16906020019091905050610bbf565b005b34156105ec57600080fd5b6105f4610c72565b6040518082815260200191505060405180910390f35b341561061557600080fd5b61061d610c7d565b604051808215151515815260200191505060405180910390f35b341561064257600080fd5b61064a610c90565b604051808273ffffffffffffffffffffffffffffffffffffffff1673ffffffffffffffffffffffffffffffffffffffff16815260200191505060405180910390f35b341561069757600080fd5b61069f610cb5565b6040518082815260200191505060405180910390f35b34156106c057600080fd5b6106c8610cbd565b604051808215151515815260200191505060405180910390f35b34156106ed57600080fd5b6106f5610cd0565b005b341561070257600080fd5b61070a610d49565b6040518082815260200191505060405180910390f35b341561072b57600080fd5b610733610d53565b6040518082815260200191505060405180910390f35b341561075457600080fd5b610780600480803573ffffffffffffffffffffffffffffffffffffffff16906020019091905050610d59565b005b600160009054906101000a900473ffffffffffffffffffffffffffffffffffffffff1673ffffffffffffffffffffffffffffffffffffffff163373ffffffffffffffffffffffffffffffffffffffff161415156107de57600080fd5b600360009054906101000a900460ff161515156107fa57600080fd5b6000600360016101000a81548160ff0219169083151502179055506000809054906101000a900473ffffffffffffffffffffffffffffffffffffffff1673ffffffffffffffffffffffffffffffffffffffff166370a08231306000604051602001526040518263ffffffff167c0100000000000000000000000000000000000000000000000000000000028152600401808273ffffffffffffffffffffffffffffffffffffffff1673ffffffffffffffffffffffffffffffffffffffff168152602001915050602060405180830381600087803b15156108d957600080fd5b6102c65a03f115156108ea57600080fd5b50505060405180519050600281905550565b600160009054906101000a900473ffffffffffffffffffffffffffffffffffffffff1673ffffffffffffffffffffffffffffffffffffffff163373ffffffffffffffffffffffffffffffffffffffff1614151561095857600080fd5b6000600360016101000a81548160ff021916908315150217905550565b6000600560008373ffffffffffffffffffffffffffffffffffffffff1673ffffffffffffffffffffffffffffffffffffffff16815260200190815260200160002060009054906101000a900460ff16156109db5765188e6d68b000600254029050610a3b565b610a3865188e6d68b00060025402600660008573ffffffffffffffffffffffffffffffffffffffff1673ffffffffffffffffffffffffffffffffffffffff16815260200190815260200160002054678ac7230489e8000003610e0c565b90505b919050565b600881565b600160009054906101000a900473ffffffffffffffffffffffffffffffffffffffff1673ffffffffffffffffffffffffffffffffffffffff163373ffffffffffffffffffffffffffffffffffffffff16141515610aa157600080fd5b6000600460008373ffffffffffffffffffffffffffffffffffffffff1673ffffffffffffffffffffffffffffffffffffffff16815260200190815260200160002060006101000a81548160ff02191690831515021790555050565b678ac7230489e8000081565b600160009054906101000a900473ffffffffffffffffffffffffffffffffffffffff1673ffffffffffffffffffffffffffffffffffffffff163373ffffffffffffffffffffffffffffffffffffffff16141515610b6457600080fd5b6001600460008373ffffffffffffffffffffffffffffffffffffffff1673ffffffffffffffffffffffffffffffffffffffff16815260200190815260200160002060006101000a81548160ff02191690831515021790555050565b600460003373ffffffffffffffffffffffffffffffffffffffff1673ffffffffffffffffffffffffffffffffffffffff16815260200190815260200160002060009054906101000a900460ff161515610c1757600080fd5b6000600560008373ffffffffffffffffffffffffffffffffffffffff1673ffffffffffffffffffffffffffffffffffffffff16815260200190815260200160002060006101000a81548160ff02191690831515021790555050565b66038d7ea4c6800081565b600360009054906101000a900460ff1681565b6000809054906101000a900473ffffffffffffffffffffffffffffffffffffffff1681565b6008600a0a81565b600360019054906101000a900460ff1681565b600160009054906101000a900473ffffffffffffffffffffffffffffffffffffffff1673ffffffffffffffffffffffffffffffffffffffff163373ffffffffffffffffffffffffffffffffffffffff16141515610d2c57600080fd5b6001600360016101000a81548160ff021916908315150217905550565b65188e6d68b00081565b60025481565b600460003373ffffffffffffffffffffffffffffffffffffffff1673ffffffffffffffffffffffffffffffffffffffff16815260200190815260200160002060009054906101000a900460ff161515610db157600080fd5b6001600560008373ffffffffffffffffffffffffffffffffffffffff1673ffffffffffffffffffffffffffffffffffffffff16815260200190815260200160002060006101000a81548160ff02191690831515021790555050565b6000818310610e1b5781610e1d565b825b9050929150505600a165627a7a72305820560e17bf9733c4d94268c361557cf6ca01cb770a5a73d3dbcf07df98625d4a360029",
  "source": "pragma solidity ^0.4.18;\n\nimport \"./DGS.sol\";\nimport \"./SafeMath.sol\";\n\ncontract DgsICO {\n\n    DGS public dgsToken;\n\n    address founder;\n\n    uint public constant PRICE = 27 * 10**12;\n    uint public constant MIN_INVESTMENT = 1 * 10**15;\n    uint public constant MAX_INVESTMENT = 1 * 10**19;\n    uint public constant DECIMALS = 8;\n    uint public constant DECIMAL_INDEX = 10**DECIMALS;\n\n    uint public tokensLeft = 0;\n\n    bool public offeringClosed = false;\n    bool public offeringPaused = true;\n\n    mapping (address => bool) validators;\n    mapping (address => bool) verified;\n    mapping (address => uint) investedAmount;\n\n    function DgsICO(address _tokenAddress,\n        address _founder) public {\n            dgsToken = DGS(_tokenAddress);\n            founder = _founder;\n    }\n\n    function () public payable {\n        require(!offeringClosed && !offeringPaused);\n        require(msg.value >= MIN_INVESTMENT);\n\n        require(investedAmount[msg.sender] + msg.value <= MAX_INVESTMENT\n             || verified[msg.sender]);\n\n        uint tokensToBeSent = msg.value * DECIMAL_INDEX / PRICE;\n        uint overpaid = 0;\n\n        if (tokensLeft <= tokensToBeSent) {\n            tokensToBeSent = tokensLeft;\n            tokensLeft = 0;\n            offeringClosed = true;\n            overpaid = msg.value - (tokensToBeSent * PRICE / DECIMAL_INDEX);\n        }\n        else\n            tokensLeft -= tokensToBeSent;\n\n        investedAmount[msg.sender] += msg.value - overpaid;\n\n        founder.transfer(this.balance);\n        dgsToken.transfer(msg.sender, tokensToBeSent);\n\n        if(overpaid != 0) {\n            msg.sender.transfer(overpaid);\n        }\n    }\n\n    function getLeftInvestmentAllowance(address _address)\n    public constant returns (uint _leftInvestmentAllowance) {\n\n        if(verified[_address]) {\n          _leftInvestmentAllowance = tokensLeft * PRICE;\n        } else {\n            _leftInvestmentAllowance = SafeMath.min256(tokensLeft * PRICE,\n              MAX_INVESTMENT - investedAmount[_address]);\n        }\n    }\n\n    modifier onlyFounder {\n        require(msg.sender == founder);\n        _;\n    }\n\n    modifier onlyValidator() {\n        require(validators[msg.sender]);\n        _;\n    }\n\n    // Launch the ICO\n    // Should be called after \"setIcoAddress()\" in DGS.sol\n    function launch() public onlyFounder() {\n        require(!offeringClosed);\n        offeringPaused = false;\n        tokensLeft = dgsToken.balanceOf(this);\n    }\n\n    function pause() public onlyFounder() {\n        offeringPaused = true;\n    }\n\n    function resume() public onlyFounder() {\n        offeringPaused = false;\n    }\n\n    function addValidator(address _validator)\n    public onlyFounder() {\n        validators[_validator] = true;\n    }\n\n    function removeValidator(address _validator)\n    public onlyFounder() {\n        validators[_validator] = false;\n    }\n\n    function verifyAddress(address _address)\n    public onlyValidator() {\n        verified[_address] = true;\n    }\n\n    function removeVerifiedAddress(address _address)\n    public onlyValidator() {\n        verified[_address] = false;\n    }\n}\n",
  "sourcePath": "/Users/gleb/Documents/GitHub/smart-contracts/contracts/DgsICO.sol",
  "compiler": {
    "name": "solc",
    "version": "0.4.18+commit.9cf6e910.Emscripten.clang"
  },
  "schemaVersion": "1.0.1",
  "updatedAt": "2018-02-12T14:52:28.647Z"
}