{
  "contractName": "DgsICO",
  "abi": [
    {
      "constant": true,
      "inputs": [],
      "name": "maxInvestment",
      "outputs": [
        {
          "name": "",
          "type": "uint256"
        }
      ],
      "payable": false,
      "stateMutability": "view",
      "type": "function"
    },
    {
      "constant": false,
      "inputs": [],
      "name": "launch",
      "outputs": [],
      "payable": false,
      "stateMutability": "nonpayable",
      "type": "function"
    },
    {
      "constant": false,
      "inputs": [],
      "name": "stop",
      "outputs": [],
      "payable": false,
      "stateMutability": "nonpayable",
      "type": "function"
    },
    {
      "constant": false,
      "inputs": [
        {
          "name": "_validator",
          "type": "address"
        }
      ],
      "name": "removeValidator",
      "outputs": [],
      "payable": false,
      "stateMutability": "nonpayable",
      "type": "function"
    },
    {
      "constant": false,
      "inputs": [
        {
          "name": "_validator",
          "type": "address"
        }
      ],
      "name": "addValidator",
      "outputs": [],
      "payable": false,
      "stateMutability": "nonpayable",
      "type": "function"
    },
    {
      "constant": false,
      "inputs": [
        {
          "name": "_address",
          "type": "address"
        }
      ],
      "name": "removeVerifiedAddress",
      "outputs": [],
      "payable": false,
      "stateMutability": "nonpayable",
      "type": "function"
    },
    {
      "constant": true,
      "inputs": [],
      "name": "dgsToken",
      "outputs": [
        {
          "name": "",
          "type": "address"
        }
      ],
      "payable": false,
      "stateMutability": "view",
      "type": "function"
    },
    {
      "constant": true,
      "inputs": [],
      "name": "minInvestment",
      "outputs": [
        {
          "name": "",
          "type": "uint256"
        }
      ],
      "payable": false,
      "stateMutability": "view",
      "type": "function"
    },
    {
      "constant": true,
      "inputs": [],
      "name": "price",
      "outputs": [
        {
          "name": "",
          "type": "uint256"
        }
      ],
      "payable": false,
      "stateMutability": "view",
      "type": "function"
    },
    {
      "constant": true,
      "inputs": [],
      "name": "tokensLeft",
      "outputs": [
        {
          "name": "",
          "type": "uint256"
        }
      ],
      "payable": false,
      "stateMutability": "view",
      "type": "function"
    },
    {
      "constant": false,
      "inputs": [
        {
          "name": "_address",
          "type": "address"
        }
      ],
      "name": "verifyAddress",
      "outputs": [],
      "payable": false,
      "stateMutability": "nonpayable",
      "type": "function"
    },
    {
      "inputs": [
        {
          "name": "_tokenAddress",
          "type": "address"
        },
        {
          "name": "_founder",
          "type": "address"
        }
      ],
      "payable": false,
      "stateMutability": "nonpayable",
      "type": "constructor"
    },
    {
      "payable": true,
      "stateMutability": "payable",
      "type": "fallback"
    }
  ],
  "bytecode": "0x606060405265188e6d68b00060025566038d7ea4c68000600355678ac7230489e8000060045560006005556000600660006101000a81548160ff021916908315150217905550341561005057600080fd5b604051604080610c1e83398101604052808051906020019091908051906020019091905050816000806101000a81548173ffffffffffffffffffffffffffffffffffffffff021916908373ffffffffffffffffffffffffffffffffffffffff16021790555080600160006101000a81548173ffffffffffffffffffffffffffffffffffffffff021916908373ffffffffffffffffffffffffffffffffffffffff1602179055505050610b17806101076000396000f3006060604052600436106100ae576000357c0100000000000000000000000000000000000000000000000000000000900463ffffffff1680622e1316146103fb57806301339c211461042457806307da68f51461043957806340a141ff1461044e5780634d238c8e146104875780634e6b558a146104c057806362a81fa4146104f95780638ac2c6801461054e578063a035b1fe14610577578063b31f8f93146105a0578063fcb2cafc146105c9575b6000600660009054906101000a900460ff161515156100cc57600080fd5b60035434101515156100dd57600080fd5b60045434600960003373ffffffffffffffffffffffffffffffffffffffff1673ffffffffffffffffffffffffffffffffffffffff16815260200190815260200160002054011115806101785750600860003373ffffffffffffffffffffffffffffffffffffffff1673ffffffffffffffffffffffffffffffffffffffff16815260200190815260200160002060009054906101000a900460ff165b151561018357600080fd5b6002546305f5e100340281151561019657fe5b0490508060055411151561022657600554905060006005819055503373ffffffffffffffffffffffffffffffffffffffff166108fc6305f5e10060025484028115156101de57fe5b0434039081150290604051600060405180830381858888f19350505050151561020657600080fd5b6001600660006101000a81548160ff021916908315150217905550610237565b806005600082825403925050819055505b600160009054906101000a900473ffffffffffffffffffffffffffffffffffffffff1673ffffffffffffffffffffffffffffffffffffffff166108fc3073ffffffffffffffffffffffffffffffffffffffff16319081150290604051600060405180830381858888f1935050505015156102b057600080fd5b6000809054906101000a900473ffffffffffffffffffffffffffffffffffffffff1673ffffffffffffffffffffffffffffffffffffffff1663a9059cbb33836000604051602001526040518363ffffffff167c0100000000000000000000000000000000000000000000000000000000028152600401808373ffffffffffffffffffffffffffffffffffffffff1673ffffffffffffffffffffffffffffffffffffffff16815260200182815260200192505050602060405180830381600087803b151561037c57600080fd5b6102c65a03f1151561038d57600080fd5b50505060405180519050506305f5e10060025482028115156103ab57fe5b04600960003373ffffffffffffffffffffffffffffffffffffffff1673ffffffffffffffffffffffffffffffffffffffff1681526020019081526020016000206000828254019250508190555050005b341561040657600080fd5b61040e610602565b6040518082815260200191505060405180910390f35b341561042f57600080fd5b610437610608565b005b341561044457600080fd5b61044c610767565b005b341561045957600080fd5b610485600480803573ffffffffffffffffffffffffffffffffffffffff169060200190919050506107e0565b005b341561049257600080fd5b6104be600480803573ffffffffffffffffffffffffffffffffffffffff16906020019091905050610897565b005b34156104cb57600080fd5b6104f7600480803573ffffffffffffffffffffffffffffffffffffffff1690602001909190505061094e565b005b341561050457600080fd5b61050c610a01565b604051808273ffffffffffffffffffffffffffffffffffffffff1673ffffffffffffffffffffffffffffffffffffffff16815260200191505060405180910390f35b341561055957600080fd5b610561610a26565b6040518082815260200191505060405180910390f35b341561058257600080fd5b61058a610a2c565b6040518082815260200191505060405180910390f35b34156105ab57600080fd5b6105b3610a32565b6040518082815260200191505060405180910390f35b34156105d457600080fd5b610600600480803573ffffffffffffffffffffffffffffffffffffffff16906020019091905050610a38565b005b60045481565b600160009054906101000a900473ffffffffffffffffffffffffffffffffffffffff1673ffffffffffffffffffffffffffffffffffffffff163373ffffffffffffffffffffffffffffffffffffffff1614151561066457600080fd5b600660009054906101000a900460ff1615151561068057600080fd5b6000809054906101000a900473ffffffffffffffffffffffffffffffffffffffff1673ffffffffffffffffffffffffffffffffffffffff166370a08231306000604051602001526040518263ffffffff167c0100000000000000000000000000000000000000000000000000000000028152600401808273ffffffffffffffffffffffffffffffffffffffff1673ffffffffffffffffffffffffffffffffffffffff168152602001915050602060405180830381600087803b151561074457600080fd5b6102c65a03f1151561075557600080fd5b50505060405180519050600581905550565b600160009054906101000a900473ffffffffffffffffffffffffffffffffffffffff1673ffffffffffffffffffffffffffffffffffffffff163373ffffffffffffffffffffffffffffffffffffffff161415156107c357600080fd5b6000600660006101000a81548160ff021916908315150217905550565b600160009054906101000a900473ffffffffffffffffffffffffffffffffffffffff1673ffffffffffffffffffffffffffffffffffffffff163373ffffffffffffffffffffffffffffffffffffffff1614151561083c57600080fd5b6000600760008373ffffffffffffffffffffffffffffffffffffffff1673ffffffffffffffffffffffffffffffffffffffff16815260200190815260200160002060006101000a81548160ff02191690831515021790555050565b600160009054906101000a900473ffffffffffffffffffffffffffffffffffffffff1673ffffffffffffffffffffffffffffffffffffffff163373ffffffffffffffffffffffffffffffffffffffff161415156108f357600080fd5b6001600760008373ffffffffffffffffffffffffffffffffffffffff1673ffffffffffffffffffffffffffffffffffffffff16815260200190815260200160002060006101000a81548160ff02191690831515021790555050565b600760003373ffffffffffffffffffffffffffffffffffffffff1673ffffffffffffffffffffffffffffffffffffffff16815260200190815260200160002060009054906101000a900460ff1615156109a657600080fd5b6000600860008373ffffffffffffffffffffffffffffffffffffffff1673ffffffffffffffffffffffffffffffffffffffff16815260200190815260200160002060006101000a81548160ff02191690831515021790555050565b6000809054906101000a900473ffffffffffffffffffffffffffffffffffffffff1681565b60035481565b60025481565b60055481565b600760003373ffffffffffffffffffffffffffffffffffffffff1673ffffffffffffffffffffffffffffffffffffffff16815260200190815260200160002060009054906101000a900460ff161515610a9057600080fd5b6001600860008373ffffffffffffffffffffffffffffffffffffffff1673ffffffffffffffffffffffffffffffffffffffff16815260200190815260200160002060006101000a81548160ff021916908315150217905550505600a165627a7a7230582082e372dfdb208a753c57d81438881b1383c3f3abe71e170f817b9879dbcfabce0029",
  "source": "pragma solidity ^0.4.18;\n\nimport \"./DGS.sol\";\n\ncontract DgsICO {\n\n    DGS public dgsToken;\n\n    address founder;\n\n    uint public price = 27 * 10**12;\n    uint public minInvestment = 1 * 10**15;\n    uint public maxInvestment = 1 * 10**19;\n    uint public tokensLeft = 0;\n\n    bool offeringClosed = false;\n\n    mapping (address => bool) validators;\n    mapping (address => bool) verified;\n    mapping (address => uint) investedAmount;\n\n    function DgsICO( address _tokenAddress,\n        address _founder) public {\n            dgsToken = DGS(_tokenAddress);\n            founder = _founder;\n    }\n\n    modifier onlyFounder {\n        require(msg.sender == founder);\n        _;\n    }\n\n    modifier onlyValidator() {\n        require(validators[msg.sender]);\n        _;\n    }\n\n    // Launch the ICO\n    // Should be called after \"setIcoAddress()\" in DGS.sol\n    function launch() public onlyFounder() {\n        require(!offeringClosed);\n        tokensLeft = dgsToken.balanceOf(this);\n    }\n\n    function stop() public onlyFounder() {\n        offeringClosed = false;\n    }\n\n    function addValidator(address _validator)\n    public onlyFounder() {\n        validators[_validator] = true;\n    }\n\n    function removeValidator(address _validator)\n    public onlyFounder() {\n        validators[_validator] = false;\n    }\n\n    function verifyAddress(address _address)\n    public onlyValidator() {\n        verified[_address] = true;\n    }\n\n    function removeVerifiedAddress(address _address)\n    public onlyValidator() {\n        verified[_address] = false;\n    }\n\n    function () payable {\n        require(!offeringClosed);\n        require(msg.value >= minInvestment);\n\n        require(investedAmount[msg.sender] + msg.value <= maxInvestment\n             || verified[msg.sender]);\n\n        uint tokensToBeSent = msg.value * 10**8 / price ;\n\n        if (tokensLeft <= tokensToBeSent) {\n            tokensToBeSent = tokensLeft;\n            tokensLeft = 0;\n            msg.sender.transfer(msg.value - (tokensToBeSent * price / 10**8));\n            offeringClosed = true;\n        }\n        else\n            tokensLeft -= tokensToBeSent;\n\n        founder.transfer(this.balance);\n\n        dgsToken.transfer(msg.sender,\n            tokensToBeSent);\n\n        investedAmount[msg.sender] += tokensToBeSent * price / 10**8;\n    }\n}\n",
  "sourcePath": "/Users/gleb/Documents/GitHub/smart-contracts/contracts/DgsICO.sol",
  "compiler": {
    "name": "solc",
    "version": "0.4.18+commit.9cf6e910.Emscripten.clang"
  },
  "schemaVersion": "1.0.1",
  "updatedAt": "2018-01-26T23:33:31.580Z"
}