{
  "contractName": "DgsICO",
  "abi": [
    {
      "constant": false,
      "inputs": [],
      "name": "launch",
      "outputs": [],
      "payable": false,
      "stateMutability": "nonpayable",
      "type": "function"
    },
    {
      "constant": false,
      "inputs": [],
      "name": "stop",
      "outputs": [],
      "payable": false,
      "stateMutability": "nonpayable",
      "type": "function"
    },
    {
      "constant": true,
      "inputs": [],
      "name": "dgsToken",
      "outputs": [
        {
          "name": "",
          "type": "address"
        }
      ],
      "payable": false,
      "stateMutability": "view",
      "type": "function"
    },
    {
      "constant": true,
      "inputs": [],
      "name": "minInvestment",
      "outputs": [
        {
          "name": "",
          "type": "uint256"
        }
      ],
      "payable": false,
      "stateMutability": "view",
      "type": "function"
    },
    {
      "constant": true,
      "inputs": [],
      "name": "price",
      "outputs": [
        {
          "name": "",
          "type": "uint256"
        }
      ],
      "payable": false,
      "stateMutability": "view",
      "type": "function"
    },
    {
      "constant": true,
      "inputs": [],
      "name": "tokensLeft",
      "outputs": [
        {
          "name": "",
          "type": "uint256"
        }
      ],
      "payable": false,
      "stateMutability": "view",
      "type": "function"
    },
    {
      "inputs": [
        {
          "name": "_tokenAddress",
          "type": "address"
        },
        {
          "name": "_founder",
          "type": "address"
        }
      ],
      "payable": false,
      "stateMutability": "nonpayable",
      "type": "constructor"
    },
    {
      "payable": true,
      "stateMutability": "payable",
      "type": "fallback"
    }
  ],
  "bytecode": "0x6060604052662386f26fc1000060025566038d7ea4c6800060035560006004556000600560006101000a81548160ff021916908315150217905550341561004557600080fd5b60405160408061070683398101604052808051906020019091908051906020019091905050816000806101000a81548173ffffffffffffffffffffffffffffffffffffffff021916908373ffffffffffffffffffffffffffffffffffffffff16021790555080600160006101000a81548173ffffffffffffffffffffffffffffffffffffffff021916908373ffffffffffffffffffffffffffffffffffffffff160217905550505061060a806100fc6000396000f300606060405260043610610078576000357c0100000000000000000000000000000000000000000000000000000000900463ffffffff16806301339c21146102d557806307da68f5146102ea57806362a81fa4146102ff5780638ac2c68014610354578063a035b1fe1461037d578063b31f8f93146103a6575b600080600560009054906101000a900460ff1615151561009757600080fd5b60035434101515156100a857600080fd5b60006004541115156100b957600080fd5b3491506002546305f5e10083028115156100cf57fe5b0490508060045411151561015f57600454905060006004819055503373ffffffffffffffffffffffffffffffffffffffff166108fc6305f5e100600254840281151561011757fe5b0484039081150290604051600060405180830381858888f19350505050151561013f57600080fd5b6001600560006101000a81548160ff021916908315150217905550610170565b806004600082825403925050819055505b600160009054906101000a900473ffffffffffffffffffffffffffffffffffffffff1673ffffffffffffffffffffffffffffffffffffffff166108fc3073ffffffffffffffffffffffffffffffffffffffff16319081150290604051600060405180830381858888f1935050505015156101e957600080fd5b6000809054906101000a900473ffffffffffffffffffffffffffffffffffffffff1673ffffffffffffffffffffffffffffffffffffffff1663a9059cbb33836000604051602001526040518363ffffffff167c0100000000000000000000000000000000000000000000000000000000028152600401808373ffffffffffffffffffffffffffffffffffffffff1673ffffffffffffffffffffffffffffffffffffffff16815260200182815260200192505050602060405180830381600087803b15156102b557600080fd5b6102c65a03f115156102c657600080fd5b50505060405180519050505050005b34156102e057600080fd5b6102e86103cf565b005b34156102f557600080fd5b6102fd61052e565b005b341561030a57600080fd5b6103126105a7565b604051808273ffffffffffffffffffffffffffffffffffffffff1673ffffffffffffffffffffffffffffffffffffffff16815260200191505060405180910390f35b341561035f57600080fd5b6103676105cc565b6040518082815260200191505060405180910390f35b341561038857600080fd5b6103906105d2565b6040518082815260200191505060405180910390f35b34156103b157600080fd5b6103b96105d8565b6040518082815260200191505060405180910390f35b600160009054906101000a900473ffffffffffffffffffffffffffffffffffffffff1673ffffffffffffffffffffffffffffffffffffffff163373ffffffffffffffffffffffffffffffffffffffff1614151561042b57600080fd5b600560009054906101000a900460ff1615151561044757600080fd5b6000809054906101000a900473ffffffffffffffffffffffffffffffffffffffff1673ffffffffffffffffffffffffffffffffffffffff166370a08231306000604051602001526040518263ffffffff167c0100000000000000000000000000000000000000000000000000000000028152600401808273ffffffffffffffffffffffffffffffffffffffff1673ffffffffffffffffffffffffffffffffffffffff168152602001915050602060405180830381600087803b151561050b57600080fd5b6102c65a03f1151561051c57600080fd5b50505060405180519050600481905550565b600160009054906101000a900473ffffffffffffffffffffffffffffffffffffffff1673ffffffffffffffffffffffffffffffffffffffff163373ffffffffffffffffffffffffffffffffffffffff1614151561058a57600080fd5b6000600560006101000a81548160ff021916908315150217905550565b6000809054906101000a900473ffffffffffffffffffffffffffffffffffffffff1681565b60035481565b60025481565b600454815600a165627a7a7230582041ed6e56367183b1be67a4c0b19c77af83fc019e835beeb360bdcd88126bea110029",
  "source": "pragma solidity ^0.4.18;\n\nimport \"./DGS.sol\";\n\ncontract DgsICO {\n\n    DGS public dgsToken;\n\n    address founder;\n\n    uint public price = 1 * 10**16;             // temp value, will be changed\n    uint public minInvestment = 1 * 10**15;     // temp value, will be changed\n    uint public tokensLeft = 0;\n\n    bool offeringClosed = false;\n\n    function DgsICO( address _tokenAddress,\n        address _founder) public {\n            dgsToken = DGS(_tokenAddress);\n            founder = _founder;\n    }\n\n    modifier onlyFounder {\n        require(msg.sender == founder);\n        _;\n    }\n\n    // Launch the ICO\n    // Should be called after \"setIcoAddress()\" in DGS.sol\n    function launch() public onlyFounder() {\n        require(!offeringClosed);\n        tokensLeft = dgsToken.balanceOf(this);\n    }\n\n    function stop() public onlyFounder() {\n        offeringClosed = false;\n    }\n\n    function () payable {\n        require(!offeringClosed);\n        require(msg.value >= minInvestment);\n        require(tokensLeft > 0);\n        uint _value = msg.value;\n\n        uint tokensToBeSent = _value * 10**8 / price ;\n\n        if (tokensLeft <= tokensToBeSent) {\n            tokensToBeSent = tokensLeft;\n            tokensLeft = 0;\n            msg.sender.transfer(_value - (tokensToBeSent * price / 10**8));\n            offeringClosed = true;\n        }\n        else\n            tokensLeft -= tokensToBeSent;\n\n        founder.transfer(this.balance);\n\n        dgsToken.transfer(msg.sender,\n            tokensToBeSent);\n    }\n}\n",
  "sourcePath": "/Users/gleb/Documents/GitHub/smart-contracts/contracts/DgsICO.sol",
  "compiler": {
    "name": "solc",
    "version": "0.4.18+commit.9cf6e910.Emscripten.clang"
  },
  "schemaVersion": "1.0.1",
  "updatedAt": "2018-01-23T11:58:50.318Z"
}