{
  "contractName": "DgsICO",
  "abi": [
    {
      "constant": false,
      "inputs": [],
      "name": "launch",
      "outputs": [],
      "payable": false,
      "stateMutability": "nonpayable",
      "type": "function"
    },
    {
      "constant": true,
      "inputs": [],
      "name": "dgsToken",
      "outputs": [
        {
          "name": "",
          "type": "address"
        }
      ],
      "payable": false,
      "stateMutability": "view",
      "type": "function"
    },
    {
      "constant": true,
      "inputs": [],
      "name": "minInvestment",
      "outputs": [
        {
          "name": "",
          "type": "uint256"
        }
      ],
      "payable": false,
      "stateMutability": "view",
      "type": "function"
    },
    {
      "constant": true,
      "inputs": [],
      "name": "price",
      "outputs": [
        {
          "name": "",
          "type": "uint256"
        }
      ],
      "payable": false,
      "stateMutability": "view",
      "type": "function"
    },
    {
      "constant": true,
      "inputs": [],
      "name": "tokensLeft",
      "outputs": [
        {
          "name": "",
          "type": "uint256"
        }
      ],
      "payable": false,
      "stateMutability": "view",
      "type": "function"
    },
    {
      "inputs": [
        {
          "name": "_tokenAddress",
          "type": "address"
        },
        {
          "name": "_founder",
          "type": "address"
        }
      ],
      "payable": false,
      "stateMutability": "nonpayable",
      "type": "constructor"
    },
    {
      "payable": true,
      "stateMutability": "payable",
      "type": "fallback"
    }
  ],
  "bytecode": "0x606060405267016345785d8a0000600255662386f26fc1000060035560006004556000600560006101000a81548160ff021916908315150217905550341561004657600080fd5b60405160408061066e83398101604052808051906020019091908051906020019091905050816000806101000a81548173ffffffffffffffffffffffffffffffffffffffff021916908373ffffffffffffffffffffffffffffffffffffffff16021790555080600160006101000a81548173ffffffffffffffffffffffffffffffffffffffff021916908373ffffffffffffffffffffffffffffffffffffffff1602179055505050610571806100fd6000396000f30060606040526004361061006d576000357c0100000000000000000000000000000000000000000000000000000000900463ffffffff16806301339c21146102ca57806362a81fa4146102df5780638ac2c68014610334578063a035b1fe1461035d578063b31f8f9314610386575b600080600560009054906101000a900460ff1615151561008c57600080fd5b600354341015151561009d57600080fd5b60006004541115156100ae57600080fd5b3491506002546305f5e10083028115156100c457fe5b0490508060045411151561015457600454905060006004819055503373ffffffffffffffffffffffffffffffffffffffff166108fc6305f5e100600254840281151561010c57fe5b0484039081150290604051600060405180830381858888f19350505050151561013457600080fd5b6001600560006101000a81548160ff021916908315150217905550610165565b806004600082825403925050819055505b600160009054906101000a900473ffffffffffffffffffffffffffffffffffffffff1673ffffffffffffffffffffffffffffffffffffffff166108fc3073ffffffffffffffffffffffffffffffffffffffff16319081150290604051600060405180830381858888f1935050505015156101de57600080fd5b6000809054906101000a900473ffffffffffffffffffffffffffffffffffffffff1673ffffffffffffffffffffffffffffffffffffffff1663a9059cbb33836000604051602001526040518363ffffffff167c0100000000000000000000000000000000000000000000000000000000028152600401808373ffffffffffffffffffffffffffffffffffffffff1673ffffffffffffffffffffffffffffffffffffffff16815260200182815260200192505050602060405180830381600087803b15156102aa57600080fd5b6102c65a03f115156102bb57600080fd5b50505060405180519050505050005b34156102d557600080fd5b6102dd6103af565b005b34156102ea57600080fd5b6102f261050e565b604051808273ffffffffffffffffffffffffffffffffffffffff1673ffffffffffffffffffffffffffffffffffffffff16815260200191505060405180910390f35b341561033f57600080fd5b610347610533565b6040518082815260200191505060405180910390f35b341561036857600080fd5b610370610539565b6040518082815260200191505060405180910390f35b341561039157600080fd5b61039961053f565b6040518082815260200191505060405180910390f35b600160009054906101000a900473ffffffffffffffffffffffffffffffffffffffff1673ffffffffffffffffffffffffffffffffffffffff163373ffffffffffffffffffffffffffffffffffffffff1614151561040b57600080fd5b600560009054906101000a900460ff1615151561042757600080fd5b6000809054906101000a900473ffffffffffffffffffffffffffffffffffffffff1673ffffffffffffffffffffffffffffffffffffffff166370a08231306000604051602001526040518263ffffffff167c0100000000000000000000000000000000000000000000000000000000028152600401808273ffffffffffffffffffffffffffffffffffffffff1673ffffffffffffffffffffffffffffffffffffffff168152602001915050602060405180830381600087803b15156104eb57600080fd5b6102c65a03f115156104fc57600080fd5b50505060405180519050600481905550565b6000809054906101000a900473ffffffffffffffffffffffffffffffffffffffff1681565b60035481565b60025481565b600454815600a165627a7a723058202d471bb4a7789adcc9a0630f0f8c36dbbc01e44ea3fac805bc29e926d9dfa5e00029",
  "source": "pragma solidity ^0.4.18;\n\nimport \"./DGS.sol\";\n\ncontract DgsICO {\n\n    DGS public dgsToken;\n\n    address founder;\n\n    uint public price = 1 * 10**17;             // temp value, will be changed\n    uint public minInvestment = 1 * 10**16;     // temp value, will be changed\n    uint public tokensLeft = 0;\n\n    bool offeringClosed = false;\n\n    function DgsICO( address _tokenAddress,\n        address _founder) public {\n            dgsToken = DGS(_tokenAddress);\n            founder = _founder;\n    }\n\n    modifier onlyFounder {\n        require(msg.sender == founder);\n        _;\n    }\n\n    // Launch the ICO\n    // Should be called after \"setIcoAddress()\" in DGS.sol\n    function launch() public onlyFounder() {\n        require(!offeringClosed);\n        tokensLeft = dgsToken.balanceOf(this);\n    }\n\n    function () payable {\n        require(!offeringClosed);\n        require(msg.value >= minInvestment);\n        require(tokensLeft > 0);\n        uint _value = msg.value;\n\n        uint tokensToBeSent = _value * 10**8 / price ;\n\n        if (tokensLeft <= tokensToBeSent) {\n            tokensToBeSent = tokensLeft;\n            tokensLeft = 0;\n\n            msg.sender.transfer(_value - (tokensToBeSent * price / 10**8));\n            offeringClosed = true;\n        }\n        else\n            tokensLeft -= tokensToBeSent;\n\n        founder.transfer(this.balance);\n\n        dgsToken.transfer(msg.sender,\n            tokensToBeSent);\n    }\n}\n",
  "sourcePath": "/Users/gleb/Documents/GitHub/smart-contracts/contracts/DgsICO.sol",
  "compiler": {
    "name": "solc",
    "version": "0.4.18+commit.9cf6e910.Emscripten.clang"
  },
  "schemaVersion": "1.0.1",
  "updatedAt": "2018-01-11T15:00:57.374Z"
}