{
  "contractName": "DgsICO",
  "abi": [
    {
      "constant": false,
      "inputs": [],
      "name": "launch",
      "outputs": [
        {
          "name": "",
          "type": "uint256"
        }
      ],
      "payable": false,
      "stateMutability": "nonpayable",
      "type": "function"
    },
    {
      "constant": false,
      "inputs": [
        {
          "name": "amount",
          "type": "uint256"
        }
      ],
      "name": "withdraw",
      "outputs": [
        {
          "name": "",
          "type": "address"
        }
      ],
      "payable": false,
      "stateMutability": "nonpayable",
      "type": "function"
    },
    {
      "constant": true,
      "inputs": [],
      "name": "dgsToken",
      "outputs": [
        {
          "name": "",
          "type": "address"
        }
      ],
      "payable": false,
      "stateMutability": "view",
      "type": "function"
    },
    {
      "constant": true,
      "inputs": [],
      "name": "minInvestment",
      "outputs": [
        {
          "name": "",
          "type": "uint256"
        }
      ],
      "payable": false,
      "stateMutability": "view",
      "type": "function"
    },
    {
      "constant": true,
      "inputs": [
        {
          "name": "_tokenAddress",
          "type": "address"
        },
        {
          "name": "_founder1",
          "type": "address"
        },
        {
          "name": "_founder2",
          "type": "address"
        },
        {
          "name": "_deadline",
          "type": "uint256"
        },
        {
          "name": "_price",
          "type": "uint256"
        },
        {
          "name": "_minInvestment",
          "type": "uint256"
        },
        {
          "name": "_freeInvestmentLimit",
          "type": "uint256"
        }
      ],
      "name": "price",
      "outputs": [
        {
          "name": "",
          "type": "uint256"
        }
      ],
      "payable": false,
      "stateMutability": "view",
      "type": "function"
    },
    {
      "constant": true,
      "inputs": [
        {
          "name": "_tokenAddress",
          "type": "address"
        },
        {
          "name": "_founder1",
          "type": "address"
        },
        {
          "name": "_founder2",
          "type": "address"
        },
        {
          "name": "_minInvestment",
          "type": "uint256"
        },
        {
          "name": "_minInvestment",
          "type": "uint256"
        }
      ],
      "name": "tokensLeft",
      "outputs": [
        {
          "name": "",
          "type": "uint256"
        }
      ],
      "payable": false,
      "stateMutability": "view",
      "type": "function"
    },
    {
      "constant": true,
      "inputs": [
        {
          "name": "_tokenAddress",
          "type": "address"
        },
        {
          "name": "_founder1",
          "type": "address"
        },
        {
          "name": "_founder2",
          "type": "address"
        }
      ],
      "name": "etherRised",
      "outputs": [
        {
          "name": "",
          "type": "uint256"
        }
      ],
      "payable": false,
      "stateMutability": "nonpayable",
      "type": "constructor"
    },
    {
      "payable": true,
      "stateMutability": "payable",
      "type": "fallback",
      "constant": false,
      "inputs": [
        {
          "name": "_tokenAddress",
          "type": "address"
        },
        {
          "name": "_founder1",
          "type": "address"
        },
        {
          "name": "_founder2",
          "type": "address"
        },
        {
          "name": "_price",
          "type": "uint256"
        },
        {
          "name": "_minInvestment",
          "type": "uint256"
        },
        {
          "name": "_minInvestment",
          "type": "uint256"
        }
      ],
      "name": "dgsICO",
      "outputs": []
    },
    {
      "payable": true,
      "stateMutability": "payable",
      "type": "fallback"
    }
  ],
  "bytecode": "0x606060405267016345785d8a0000600355662386f26fc1000060045560006005556001600660006101000a81548160ff0219169083151502179055506001600660016101000a81548160ff021916908315150217905550341561006157600080fd5b60405160608061088783398101604052808051906020019091908051906020019091908051906020019091905050826000806101000a81548173ffffffffffffffffffffffffffffffffffffffff021916908373ffffffffffffffffffffffffffffffffffffffff16021790555081600160006101000a81548173ffffffffffffffffffffffffffffffffffffffff021916908373ffffffffffffffffffffffffffffffffffffffff16021790555080600260006101000a81548173ffffffffffffffffffffffffffffffffffffffff021916908373ffffffffffffffffffffffffffffffffffffffff160217905550505050610724806101636000396000f300606060405260043610610078576000357c0100000000000000000000000000000000000000000000000000000000900463ffffffff16806301339c21146102cb5780632e1a7d4d146102e057806362a81fa4146103035780638ac2c68014610358578063a035b1fe14610381578063b31f8f93146103aa575b600080600660009054906101000a900460ff1615151561009757600080fd5b60045434101515156100a857600080fd5b60006005541115156100b957600080fd5b3491506305f5e100600354838115156100ce57fe5b040290508060055411151561010657600554905060006005819055506001600660006101000a81548160ff0219169083151502179055505b806005600082825403925050819055506000809054906101000a900473ffffffffffffffffffffffffffffffffffffffff1673ffffffffffffffffffffffffffffffffffffffff1663a9059cbb33836000604051602001526040518363ffffffff167c0100000000000000000000000000000000000000000000000000000000028152600401808373ffffffffffffffffffffffffffffffffffffffff1673ffffffffffffffffffffffffffffffffffffffff16815260200182815260200192505050602060405180830381600087803b15156101e257600080fd5b6102c65a03f115156101f357600080fd5b5050506040518051905050600660009054906101000a900460ff16156102c7576000809054906101000a900473ffffffffffffffffffffffffffffffffffffffff1673ffffffffffffffffffffffffffffffffffffffff1663356e29276040518163ffffffff167c0100000000000000000000000000000000000000000000000000000000028152600401600060405180830381600087803b151561029757600080fd5b6102c65a03f115156102a857600080fd5b5050506000600660016101000a81548160ff0219169083151502179055505b5050005b34156102d657600080fd5b6102de6103d3565b005b34156102eb57600080fd5b61030160048080359060200190919050506105a4565b005b341561030e57600080fd5b6103166106c1565b604051808273ffffffffffffffffffffffffffffffffffffffff1673ffffffffffffffffffffffffffffffffffffffff16815260200191505060405180910390f35b341561036357600080fd5b61036b6106e6565b6040518082815260200191505060405180910390f35b341561038c57600080fd5b6103946106ec565b6040518082815260200191505060405180910390f35b34156103b557600080fd5b6103bd6106f2565b6040518082815260200191505060405180910390f35b600160009054906101000a900473ffffffffffffffffffffffffffffffffffffffff1673ffffffffffffffffffffffffffffffffffffffff163373ffffffffffffffffffffffffffffffffffffffff16148061047c5750600260009054906101000a900473ffffffffffffffffffffffffffffffffffffffff1673ffffffffffffffffffffffffffffffffffffffff163373ffffffffffffffffffffffffffffffffffffffff16145b151561048757600080fd5b600660019054906101000a900460ff1615156104a257600080fd5b6000809054906101000a900473ffffffffffffffffffffffffffffffffffffffff1673ffffffffffffffffffffffffffffffffffffffff166370a08231306000604051602001526040518263ffffffff167c0100000000000000000000000000000000000000000000000000000000028152600401808273ffffffffffffffffffffffffffffffffffffffff1673ffffffffffffffffffffffffffffffffffffffff168152602001915050602060405180830381600087803b151561056657600080fd5b6102c65a03f1151561057757600080fd5b505050604051805190506005819055506000600660006101000a81548160ff021916908315150217905550565b600160009054906101000a900473ffffffffffffffffffffffffffffffffffffffff1673ffffffffffffffffffffffffffffffffffffffff163373ffffffffffffffffffffffffffffffffffffffff16148061064d5750600260009054906101000a900473ffffffffffffffffffffffffffffffffffffffff1673ffffffffffffffffffffffffffffffffffffffff163373ffffffffffffffffffffffffffffffffffffffff16145b151561065857600080fd5b803073ffffffffffffffffffffffffffffffffffffffff16311115151561067e57600080fd5b3373ffffffffffffffffffffffffffffffffffffffff166108fc829081150290604051600060405180830381858888f1935050505015156106be57600080fd5b50565b6000809054906101000a900473ffffffffffffffffffffffffffffffffffffffff1681565b60045481565b60035481565b600554815600a165627a7a72305820076dadba0b9598ab11bc982c26ff6de1c5f9a70ae2e5d01aef0ee4cc9a60d8cd0029",
  "source": "pragma solidity ^0.4.11;\n\nimport \"./DGS.sol\";\n\ncontract DgsICO {\n\n    DGS public dgsToken;\n\n    address founder1;\n    address founder2;\n\n    uint public price = 100000000000000000;\n    uint public minInvestment = 10000000000000000;\n    uint public tokensLeft = 0;\n\n    bool offeringClosed = true;\n    bool initialOffering = true;\n\n    mapping ( uint => address) truestedContracts;\n\n    function DgsICO( address _tokenAddress,\n        address _founder1,\n        address _founder2\n        ) public {\n            dgsToken = DGS(_tokenAddress);\n            founder1 = _founder1;\n            founder2 = _founder2;\n    }\n\n    modifier onlyFounder {\n        require(msg.sender == founder1 ||\n            msg.sender == founder2);\n        _;\n    }\n\n    // Launch the ICO\n    // Should be called after \"setIcoAddress()\" in DGS.sol\n    function launch() public onlyFounder() {\n        require(initialOffering);\n        tokensLeft = dgsToken.balanceOf(this);\n        offeringClosed = false;\n    }\n\n    function withdraw(uint amount) public onlyFounder() {\n        require(this.balance <= amount);\n        msg.sender.transfer(amount);\n    }\n\n    function () payable {\n        require(!offeringClosed);\n        require(msg.value >= minInvestment);\n        require(tokensLeft > 0);\n        uint _value = msg.value;\n\n        uint tokensToBeSent = _value / price * 10**8;\n\n        if (tokensLeft <= tokensToBeSent) {\n            tokensToBeSent = tokensLeft;\n            tokensLeft = 0;\n            offeringClosed = true;\n        }\n\n        tokensLeft -= tokensToBeSent;\n\n        dgsToken.transfer(msg.sender,\n            tokensToBeSent);\n\n        if (offeringClosed) {\n            dgsToken.icoFinished();\n            initialOffering = false;\n        }\n    }\n}\n",
  "sourcePath": "/Users/gleb/Documents/GitHub/DGS/contracts/DgsICO.sol",
  "compiler": {
    "name": "solc",
    "version": "0.4.18+commit.9cf6e910.Emscripten.clang"
  },
  "schemaVersion": "1.0.1",
  "updatedAt": "2017-12-31T15:13:33.344Z"
}